:100000000C946A000C9466130C943F130C949200A9
:100010000C9492000C9492000C9492000C94920018
:100020000C9492000C9492000C9492000C94920008
:100030000C9492000C9492000C9492000C949200F8
:100040000C94F5120C9492000C94B3130C948D1331
:100050000C9492000C9492000C9492000C949200D8
:100060000C94E5130C9492007C3C3E5E2B3D3F2F9C
:100070005B5D3B2C2A225C0000000000240027006E
:100080002A0000000000250028002B0000000000CE
:1000900023002600290004040404040404040202CA
:1000A00002020202030303030303010204081020F7
:1000B0004080010204081020010204081020000002
:1000C0000008000201000003040700000000000017
:1000D0000000041511241FBECFEFD8E0DEBFCDBF56
:1000E00025E0A6E8B1E001C01D92AF32B207E1F70A
:1000F00011E0A0E0B1E0E8E0FCE302C005900D9261
:10010000A638B107D9F710E0CAE6D0E004C02197BD
:10011000FE010E94E31BC936D107C9F70E9458159A
:100120000C94021E0C940000833081F028F481307E
:1001300099F08230A9F008958730A9F08830C9F08D
:100140008430B1F4809180008F7D03C08091800065
:100150008F7780938000089584B58F7784BD08954C
:1001600084B58F7DFBCF8091B0008F778093B000F6
:1001700008958091B0008F7DF9CFCF93DF93282F22
:1001800030E0F901E254FF4F8491F901E655FF4F49
:10019000D491F901EA56FF4FC491CC23A1F081110B
:1001A0000E949400EC2FF0E0EE0FFF1FE457FF4F8A
:1001B000A591B491EC91ED2381E090E009F480E009
:1001C000DF91CF91089580E090E0FACF1F93CF9315
:1001D000DF93282F30E0F901E254FF4F8491F901B9
:1001E000E655FF4FD491F901EA56FF4FC491CC2355
:1001F000A9F0162F81110E949400EC2FF0E0EE0F71
:10020000FF1FEE57FF4FA591B4918FB7F894EC9173
:10021000111108C0D095DE23DC938FBFDF91CF9101
:100220001F910895DE2BF8CFCF93DF9390E0FC0170
:10023000E655FF4F24918A569F4FFC0184918823F5
:10024000D1F090E0880F991FFC01E858FF4FA5916D
:10025000B491FC01EE57FF4FC591D491623071F417
:100260009FB7F8943C91822F809583238C93E881EB
:100270002E2B28839FBFDF91CF9108958FB7F894DD
:10028000EC912E2B2C938FBFF6CF3FB7F894809133
:10029000310290913202A0913302B091340226B51E
:1002A000A89B05C02F3F19F00196A11DB11D3FBFAE
:1002B000BA2FA92F982F8827BC01CD01620F711D7D
:1002C000811D911D42E0660F771F881F991F4A9577
:1002D000D1F708958F929F92AF92BF92CF92DF9203
:1002E000EF92FF924B015C010E9445016B017C0182
:1002F0000E9445016C197D098E099F09683E734073
:1003000081059105A8F321E0821A9108A108B1089E
:1003100088EEC80E83E0D81EE11CF11C8114910404
:10032000A104B10429F7FF90EF90DF90CF90BF9028
:10033000AF909F908F9008952FB7F89460912D0201
:1003400070912E0280912F02909130022FBF08955C
:100350008091260290912702A0912802B091290253
:100360000196A11DB11D8093260290932702A093B0
:100370002802B09329020895089508950895AF9230
:10038000BF92CF92DF92EF92FF920F931F93CF9382
:10039000DF936C017B018B01040F151FEB015E01E4
:1003A000AE18BF08C017D10759F06991D601ED9179
:1003B000FC910190F081E02DC6010995892B79F718
:1003C000C501DF91CF911F910F91FF90EF90DF90CA
:1003D000CF90BF90AF900895FC01538D448D252F91
:1003E00030E0842F90E0821B930B541710F0CF96CF
:1003F000089501970895FC01918D828D981761F001
:10040000A28DAE0FBF2FB11D5D968C91928D9F5F17
:100410009F73928F90E008958FEF9FEF0895FC01F6
:10042000918D828D981731F0828DE80FF11D858DA9
:1004300090E008958FEF9FEF0895FC01918D228D3C
:10044000892F90E0805C9F4F821B91098F739927C1
:10045000089587E394E00E941D0221E0892B09F4AE
:1004600020E0822F089580E090E0892B29F00E94FF
:10047000290281110C9400000895FC01A48DA80F9D
:10048000B92FB11DA35ABF4F2C91848D90E00196D6
:100490008F739927848FA689B7892C93A089B189F6
:1004A0008C91837080648C93938D848D981306C097
:1004B0000288F389E02D80818F7D80830895EF92FB
:1004C000FF920F931F93CF93DF93EC0181E0888F0E
:1004D0009B8D8C8D98131AC0E889F989808185FFDE
:1004E00015C09FB7F894EE89FF896083E889F98980
:1004F00080818370806480839FBF81E090E0DF9182
:10050000CF911F910F91FF90EF900895F62E0B8DD4
:1005100010E00F5F1F4F0F731127E02E8C8D8E118F
:100520000CC00FB607FCFACFE889F989808185FFF6
:10053000F5CFCE010E943D02F1CFEB8DEC0FFD2FE8
:10054000F11DE35AFF4FF0829FB7F8940B8FEA89B1
:10055000FB8980818062CFCFCF93DF93EC01888DC0
:100560008823B9F0AA89BB89E889F9898C9185FD2E
:1005700003C0808186FD0DC00FB607FCF7CF8C91BC
:1005800085FFF2CF808185FFEDCFCE010E943D0235
:10059000E9CFDF91CF9108952091D301260F332722
:1005A000331F21323105ECF42091F701FC0190E07A
:1005B00080E0243069F082E00895A091D301219178
:1005C000AC014D545E4FA40FB52FB11D2C93019675
:1005D000861798F38091D301680F6093D30180E070
:1005E000089581E008951092F70181E08093F90168
:1005F0001092F80161E082E10E94E60061E083E18F
:100600000E94E600E9EBF0E080818E7F80838081AC
:100610008D7F808388E48093B80085E48093BC005C
:1006200008950895E091240280912302E81730F4A0
:10063000F0E0E357FE4F808190E008958FEF9FEF49
:10064000089590912402809123022FEF3FEF981795
:1006500048F4E92FF0E0E357FE4F208130E09F5F40
:1006600090932402C901089580912302909124025D
:10067000891B990B0895CF93DF93CB01EA01642F77
:100680000E94CC02CE01DF91CF910895CF93DF93EA
:100690001F92CDB7DEB7698361E0CE0101960E945B
:1006A000CC0281E090E00F90DF91CF91089590E02F
:1006B00080E008958FB7F894809187018FBF0895E7
:1006C00061E0FC0184810E94E60080918601811135
:1006D0001092860108958EBD00000DB407FEFDCF77
:1006E0008EB508958FEF0C946B030F931F93CF93E8
:1006F000DF93EC010E949C018B010E9472038F3FEB
:1007000069F00E949C01601B710B6C177D07A8F3B8
:1007100080E0DF91CF911F910F91089581E0F9CF93
:100720008CBD9DBD0895CF93DF93EC018091860130
:10073000811109C081E0809386018091E00490914D
:10074000E1040E94900360E08C81DF91CF910C94D2
:10075000E6008F929F92AF92BF92FF920F931F93EA
:10076000CF93DF93EC01F62E49015A018E81882345
:1007700089F08F8198859C012F5F3F4F38872F83A9
:100780008230924018F40E947203F3CFCE010E948F
:1007900060031E82CE010E9493038CE291E00E94CE
:1007A00075038F2D80640E946B0308E110E0D50172
:1007B000C401002E04C0B695A795979587950A9415
:1007C000D2F70E946B0308501109083F8FEF1807FA
:1007D00071F785E9FF2021F028E087E8F2128FEF1A
:1007E0000E946B0310E00E9472038A8787FF04C097
:1007F0001F3F11F01F5FF7CFDF91CF911F910F9136
:10080000FF90BF90AF909F908F900895AF92BF924E
:10081000CF92DF92EF92FF920F931F93CF93DF93CC
:10082000EC016901C801820F931F8130924050F59D
:100830008E81882379F088819981AA81BB81841770
:100840009507A607B70731F48F819885C816D90692
:1008500008F042C0488359836A837B838B85833049
:1008600039F089E0440F551F661F771F8A95D1F72D
:100870009A01AB0161E1CE010E94A903882389F0AE
:1008800083E08D83CE010E94600380E0DF91CF91F1
:100890001F910F91FF90EF90DF90CF90BF90AF909E
:1008A00008950E949C015B010E9472038A878F3F1A
:1008B00069F40E949C016A197B096D327140A0F3B2
:1008C0008FE08D83CE010E946003DCCF8E3F89F4E0
:1008D00018861F8281E08E838F8198858C159D05F7
:1008E00050F40E9472038F819885019698878F83B8
:1008F000F3CF8DE0E6CF6701E00EF11E0E94720398
:10090000F60181936F01EE15FF05C1F78F81988580
:10091000080F191F18870F838985882319F001157F
:100920001240A0F08E81882389F08F8198859C01E8
:100930002F5F3F4F38872F838230924018F40E94F8
:100940007203F3CFCE010E9460031E8281E09ECF2E
:10095000CF92DF92EF92FF920F93CF93DF93EC0150
:10096000690182E1411551056105710599F08B8599
:10097000833039F089E0440F551F661F771F8A9531
:10098000D1F79A01AB0168E1CE010E94A903882347
:1009900019F084E08D832DC08EEF0E946B037601E9
:1009A0008EEFD81AF70181917F010E946B03EC143E
:1009B000FD04C1F78FEF0E946B038FEF0E946B0362
:1009C0000E9472038A878F71853071F4011116C0FD
:1009D000CE010E94600381E0DF91CF910F91FF90E3
:1009E000EF90DF90CF90089581E18D83CE010E943A
:1009F0006003CE010E94600380E0EECF88E592E0C4
:100A00000E947503811102C085E1C4CF20E030E06F
:100A1000A9016DE0CE010E94A903882311F084E1B1
:100A2000B9CF0E9472038111FACFD2CF0F934091B8
:100A3000890150918A0160918B0170918C0141155F
:100A400051056105710599F0082F25E332E0809189
:100A50003504909136040E94A804882349F010922E
:100A6000890110928A0110928B0110928C0181E011
:100A70000F9108950F93CF93C82F80918801811112
:100A800005C0C1E08C2FCF910F91089540910001D6
:100A90005091010160910201709103010C2F25E337
:100AA00032E080913504909136040E94A8048111AF
:100AB00002C0C0E0E7CFCC2321F381E00E941605FD
:100AC0008823B9F310928801DDCF8F929F92AF9265
:100AD000BF92EF92FF920F931F93CF934B015C0154
:100AE000C42F8091000190910101A0910201B09169
:100AF000030188159905AA05BB0551F181E00E9403
:100B00003A0581110BC080E0CF911F910F91FF90AA
:100B1000EF90BF90AF909F908F90089585E3E82E5F
:100B200082E0F82E00E012E030E020E0B501A40100
:100B300080913504909136040E940604882319F3AD
:100B40008092000190920101A0920201B0920301F3
:100B5000409188014C2B4093880181E0D5CF8F9242
:100B60009F92AF92BF92CF92DF92EF92FF92CF937C
:100B700022EE34E03093360420933504882309F4C0
:100B80006DC040E060E070E0CB010E94650581111E
:100B90000BC080E0CF91FF90EF90DF90CF90BF909F
:100BA000AF909F908F9008958091F3038F7789F78E
:100BB0008091FF0390910004A0910104B091020480
:100BC00084369105A105B10520F3C090FB03D090B8
:100BD000FC03E090FD03F090FE03C114D104E10496
:100BE000F104B9F240E0C701B6010E94650588230F
:100BF00081F280914002909141028115924049F624
:100C0000A0914502AA2329F2609143027091440207
:100C10006115710509F4BDCF20914202222309F428
:100C2000B8CFA09300052093F20490E080E030E07C
:100C3000E1E0F0E0C82FAF01082E02C0440F551FBD
:100C40000A94E2F72417350769F041E0480F01964E
:100C50008930910579F74093FB049BCFC12CD12CAF
:100C60007601C0CF8093FB0420914B0230914C025F
:100C700050E040E02115310541F4209159023091B6
:100C80005A0240915B0250915C022093F30430932E
:100C9000F4044093F5045093F60446015701860E80
:100CA000971EA11CB11C8092010590920205A09292
:100CB0000305B0920405E0914602F0914702F093DB
:100CC0000705E0930605B0E00E94581ADC01CB014D
:100CD000880D991DAA1DBB1D8093080590930905D9
:100CE000A0930A05B0930B0525E0EE0FFF1F2A9590
:100CF000E1F7E150FE4FEF2FFF27E6958E0F9F1F84
:100D0000A11DB11D8093FC049093FD04A093FE04EB
:100D1000B093FF048090480290904902B12CA12C1E
:100D20008114910441F48090550290905602A09055
:100D30005702B0905802C81AD90AEA0AFB0AC80C2E
:100D4000D91CEA1CFB1C04C0F694E794D794C79402
:100D5000CA95D2F7C092F704D092F804E092F90451
:100D6000F092FA0485EFC8168FE0D806E104F1048A
:100D700028F48CE08093050581E00CCF80E125EF1D
:100D8000C2162FEFD206E104F104A0F380916102B4
:100D900090916202A0916302B09164028093080571
:100DA00090930905A0930A05B0930B0580E2E2CF6A
:100DB0004F925F926F927F928F929F92AF92BF926B
:100DC000CF92DF92EF92FF920F931F93CF93DF9317
:100DD000EC01423051056105710590F480E0DF912E
:100DE000CF911F910F91FF90EF90DF90CF90BF9028
:100DF000AF909F908F907F906F905F904F900895ED
:100E000089859A85AB85BC850196A11DB11D841786
:100E10009507A607B70710F3CB88DC88ED88FE8816
:100E20008F89803109F042C0BB27A72F962F852FCD
:100E3000480159012A013B01C80ED91EEA1EFB1EBA
:100E40008091000190910101A0910201B0910301F4
:100E5000C816D906EA06FB0699F58F898031C1F5D7
:100E6000B301A201552766277727440F551F4B5C16
:100E70005D4FFA0191828082809188018160809328
:100E800088018A89823080F08D819E81AF81B8850A
:100E90008C0D9D1DAE1DBF1D8093890190938A010D
:100EA000A0938B01B0938C0181E099CFDB01CA0143
:100EB000E7E0B695A79597958795EA95D1F7B8CFCE
:100EC00040E0C701B6010E9465058111C6CF86CFFB
:100ED000B301A2014F77552766277727440F551F87
:100EE000440F551F4B5C5D4FFA0180829182A282B4
:100EF000B382C2CF8F929F92AF92BF92CF92DF9276
:100F0000EF92FF920F931F93CF93DF93FC018185A4
:100F10009285A385B4850196A11DB11D84179507FF
:100F2000A607B70770F480E0DF91CF911F910F9172
:100F3000FF90EF90DF90CF90BF90AF909F908F90F9
:100F4000089583889488A588B6888789803189F533
:100F5000BB27A72F962F852FE9016A017B018F01FF
:100F6000BC01CD01680D791D8A1D9B1D809000017B
:100F700090900101A0900201B0900301861697069F
:100F8000A806B90601F5F8018789803111F5DD243D
:100F9000EE24FF24F601EE0FFF1FEB5CFD4F808176
:100FA0009181B0E0A0E088839983AA83BB8381E02C
:100FB000BBCFDB01CA01C7E0B695A795979587958A
:100FC000CA95D1F7C9CF40E00E9465058111DBCFFA
:100FD000AACFE894C7F8DD24EE24FF24F601EE0F33
:100FE000FF1FEE0FFF1FEB5CFD4F80819181A281FF
:100FF000B381BF70D8CF4F925F926F927F92AF92C2
:10100000BF92CF92DF92EF92FF920F931F93CF93F5
:10101000DF9300D000D0CDB7DEB78C0149835A836F
:101020006B837C835901C12CD12C7601412C82E049
:10103000582E612C712C49815A816B817C819E01D3
:101040002F5F3F4FC8010E947A07882339F1F801CA
:101050008585A301920104C0220F331F441F551F31
:101060008A95D2F7DA01C901C80ED91EEA1EFB1E05
:1010700049815A816B817C818789803111F188EFA8
:101080009FEFAFEFBFE0481759076A077B0798F259
:10109000F501C082D182E282F38281E00F900F904D
:1010A0000F900F90DF91CF911F910F91FF90EF90D4
:1010B000DF90CF90BF90AF907F906F905F904F90F8
:1010C000089588EF9FEFA0E0B0E0DDCFCF93DF93EE
:1010D000FC012581222321F080E0DF91CF9108954A
:1010E000EC0180910505803159F582E08583178AEE
:1010F000108E118E128E8091060590910705B0E03A
:10110000A0E025E0880F991FAA1FBB1F2A95D1F7E1
:10111000838B948BA58BB68B8EEE94E09C8F8B8FFC
:1011200081E08C831E821F82188619861A861B8690
:101130001C861D861E861F86188A198A1A8ACDCF9C
:10114000803251F683E0858340910805509109056E
:1011500060910A0570910B05478B508F618F728FDC
:101160009F012D5E3F4F8EEE94E00E94FB078111A0
:10117000D3CFB2CF8F929F92AF92BF92CF92DF9296
:10118000EF92FF920F931F93CF93DF93EC018D812A
:1011900081110EC080E0DF91CF911F910F91FF90E0
:1011A000EF90DF90CF90BF90AF909F908F90089579
:1011B0000B891C892D893E890417150726073707D7
:1011C00048F34A015B01823031F48A869B86AC8603
:1011D000BD8681E0E0CF81149104A104B10449F4FB
:1011E0001E821F82188619861A861B861C861D86FB
:1011F000F0CF0A851B852C853D85EB8DFC8D858583
:1012000090E00996B901A80141505109610971099D
:10121000082E04C076956795579547950A94D2F79E
:1012200075016401E1E0CE1AD108E108F10804C0BB
:10123000F694E794D794C7948A95D2F7C416D50646
:10124000E606F70620F0012B022B032B11F58F8900
:10125000988DA98DBA8D8E839F83A887B9878E01BB
:101260000A5F1F4FC114D104E104F10409F4ADCFAA
:101270004E815F816885798598018B8D9C8D0E9458
:101280007A0791E0C91AD108E108F1088111EACF83
:1012900081CFC41AD50AE60AF70AE1CF3F924F92EE
:1012A0005F926F927F928F929F92AF92BF92CF92F6
:1012B000DF92EF92FF920F931F93CF93DF93CDB7FF
:1012C000DEB72C970FB6F894DEBF0FBECDBF5C0122
:1012D000DC015B968D909C905C9716964D905D908E
:1012E0006D907C901997411451046104710409F4C4
:1012F00068C0BFEF4B1A5B0A6B0A7B0A312CF40102
:1013000081859285A385B4859C01AD012F5F3F4FF8
:101310004F4F5F4F29873A874B875C877301620184
:101320001D821E821F821886F40181859285A38505
:10133000B4852D813E814F815885281739074A078A
:101340005B0708F056C089859A85AB85BC858C15EE
:101350009D05AE05BF0550F482E0C82ED12CE12CCE
:10136000F12C92E0492E512C612C712C9E012F5FA3
:101370003F4FB701A601C4010E947A078823C9F133
:1013800089819A81AB81BC81892B8A2B8B2B09F1B6
:10139000260137019FEF491A590A690A790A2D81F6
:1013A0003E814F8158852F5F3F4F4F4F5F4F2D83B9
:1013B0003E834F8358873FEFC31AD30AE30AF30AE9
:1013C000B3CFF40140805180628073803324339422
:1013D00096CFC414D504E604F70409F70FEF1FEF06
:1013E0002FEF3FE0B701A601C4010E94D80681118A
:1013F00019C080E02C960FB6F894DEBF0FBECDBFAB
:10140000DF91CF911F910F91FF90EF90DF90CF90E0
:10141000BF90AF909F908F907F906F905F904F9014
:101420003F900895D50116964D915D916D917C91F7
:101430001997411551056105710539F0970186012C
:10144000C4010E94D8068823A1F2D5011696CD9238
:10145000DD92ED92FC921997332051F0D701C6012D
:101460000196A11DB11DF40180839183A283B383F2
:10147000F5018789908DA18DB28D892B8A2B8B2BBD
:1014800039F48481C78AD08EE18EF28E806884839D
:10149000F50184818062848381E0ACCF1F93CF9378
:1014A000DF93FC0125812223D1F1162FEC018481E9
:1014B00087FF2AC0668577858089918941E00E94EF
:1014C0006505882361F1EA8980E2E89FF001112433
:1014D000EB5CFD4F309719F18D81823040F48B89A0
:1014E0009C89AD89BE89848F958FA68FB78F8F8990
:1014F000988D938F828F8F89988DA98DBA8DB58B9A
:10150000A48B8C818F778C83111103C08C818F7E8B
:101510008C83812FDF91CF911F910C943A0580E04D
:10152000DF91CF911F910895FF920F931F93CF9357
:10153000DF93EC018D81813041F090E080E0DF911C
:10154000CF911F910F91FF9008958C8181FFF5CF6E
:1015500082FD1BC00091350410913604C8010E9421
:1015600093030E947203F82EC8010E9460038FEF5C
:10157000F812E3CF8C8185FF1BC060E0CE010E9492
:101580004E0A8C818F7D8C83D8CF4B895C896D8985
:101590007E898A859B85AC85BD8584179507A607BE
:1015A000B707C1F2CE010E94BA088111D3CFC5CFCF
:1015B0004091890150918A0160918B0170918C0159
:1015C000452B462B472B21F080E00E941605B5CF16
:1015D00080618C832A853B85317080E092E0821B9C
:1015E000930BADCFCF93DF93EC0161E00E944E0AE5
:1015F000882311F01D8281E0DF91CF9108952F9211
:101600003F924F925F926F927F928F929F92AF9292
:10161000BF92CF92DF92EF92FF920F931F93CF93DF
:10162000DF9300D000D01F92CDB7DEB77C015B0105
:10163000342E5D83DC0115968C911597813009F06D
:10164000CEC014962C9021FECAC022FCB4C0C32C7C
:10165000DD8022947FE027222094B22DB1702B2EC2
:10166000D7011A964D915D916D917C911D97C11492
:10167000D10409F428C15B968D919C915C97FC0183
:1016800074807A948A019B0169E0369527951795B5
:1016900007956A95D1F770228A011170711020C0E8
:1016A00001151105E9F416964D915D916D917C91AE
:1016B0001997411551056105710509F099C05796B3
:1016C0008D919D910D90BC91A02D0097A105B10524
:1016D00009F0B0C0C7010E944E09882309F47FC0F9
:1016E00080E092E0801B910B46018C159D0508F46B
:1016F0004C01D7015B964D915C915C9716968D914C
:101700009D910D90BC91A02D0297A109B109FA01FC
:10171000258504C0880F991FAA1FBB1F2A95D2F7E1
:101720004685578560897189840F951FA61FB71F4D
:101730009C01AD01270D311D411D511D29013A01AB
:10174000811432E0930609F07BC0809100019091F2
:101750000101A0910201B091030184159505A60530
:10176000B70559F48FEF9FEFDC0180930001909350
:101770000101A0930201B0930301022D9501B30171
:10178000A20180913504909136040E94A804882318
:1017900031F19EEFB91AC818D908F70182859385EF
:1017A000A485B585880D991DA11DB11D82879387DC
:1017B000A487B58755CFF701438954896589768910
:1017C00082859385A485B585481759076A077B07E5
:1017D00009F43DCFC7010E94BA08811138CF81E0DA
:1017E00090E0D70113969C938E93129780E007C0E8
:1017F0009E012F5F3F4F0E947A07811102C090E047
:1018000079C089819A81AB81BC81F701238D348DA8
:10181000F901278948EF5FEF60E070E0203121F0A7
:1018200048EF5FEF6FEF7FE084179507A607B707D4
:1018300008F050CFF70186839783A087B18750CFF8
:101840000115110599F5D7011A964D915D916D918C
:101850007C911D9753968D919D910D90BC91A02DDB
:10186000481759076A077B0708F181E00E943A058B
:10187000882309F4B4CF4092000150920101609294
:101880000201709203018091880181608093880138
:10189000C8018B5C9D4FD5019C01280D391DFC01B1
:1018A0002E173F0759F04D914193FACF41E0C30104
:1018B000B2010E9465058111EBCF91CF281B390B36
:1018C000A20EB31E68CFF70183899489A589B689D2
:1018D00084179507A607B70738F48481438B548B88
:1018E000658B768B80688483F701848183FD1AC0C1
:1018F000832D9D810F900F900F900F900F90DF918F
:10190000CF911F910F91FF90EF90DF90CF90BF90FC
:10191000AF909F908F907F906F905F904F903F908F
:101920002F90089561E0C7010E944E0A882309F4B0
:1019300056CFDECFCF93DF931F92CDB7DEB769834B
:1019400041E050E0BE016F5F7F4F0E94FF0A0F90A1
:10195000DF91CF910895FC01DB0112968D919C914E
:1019600013979383828388E491E091838083149614
:101970008C911497848315968C9115978583169670
:101980004D915D916D917C91199746835783608746
:1019900071871A964D915D916D917C911D9742874B
:1019A0005387648775871E964D915D916D917C91EB
:1019B000519746875787608B718B52968C915297BF
:1019C000828B53964D915D916D917C915697438B8F
:1019D000548B658B768B57964D915D916D917C9173
:1019E0005A97478B508F618F728F5B968D919C9128
:1019F000948F838F08950895FC01818D928D0097B7
:101A000019F061E00C944E0A0895DC015996ED91AD
:101A1000FC913097B9F083899489A589B68942856C
:101A2000538564857585841B950BA60BB70B8115B3
:101A300020E89207A105B10538F08FEF9FE7A0E0FD
:101A4000B0E0089590E080E00895DC0159968D9112
:101A50009C91009739F0DC01ED91FC910480F581B7
:101A6000E02D099490E080E00895CF93DF93EC019E
:101A7000E98DFA8D309749F481E090E09B838A8369
:101A800090E080E0DF91CF91089513821282898DDA
:101A90009A8D0E94FF0AE98DFA8D22813381232BD2
:101AA00059F7F0CFFB0144815581608171810C941D
:101AB000350DCF93DF931F92CDB7DEB76983DC017D
:101AC000ED91FC910280F381E02D41E050E0BE01F8
:101AD0006F5F7F4F09950F90DF91CF9108950C9420
:101AE000590D2F923F924F925F926F927F928F92F9
:101AF0009F92AF92BF92CF92DF92EF92FF920F939D
:101B00001F93CF93DF9300D01F92CDB7DEB7FC01B8
:101B10008581811118C08FEF9FEF0F900F900F906C
:101B2000DF91CF911F910F91FF90EF90DF90CF90B9
:101B3000BF90AF909F908F907F906F905F904F90ED
:101B40003F902F900895848180FFE5CF4389548989
:101B50006589768982859385A485B585312C212C6C
:101B6000481759076A077B0719F022242394312C60
:101B70006F012101CE0101963C01DF011696BB8366
:101B8000AA834114510409F4C5C0F6014285538566
:101B9000648575854A01F1E09F22D6015B968D919F
:101BA0009C915C978A019B01E9E0369527951795F2
:101BB0000795EA95D1F71596EC91E230E9F5FC012D
:101BC000628D738D848D958D600F711F821F931FA1
:101BD000A12C22E0B22EA818B9084A145B0408F41C
:101BE0005201F601248126FD04C0A114F2E0BF06D3
:101BF00071F40091000110910101209102013091D6
:101C00000301061717072807390709F05EC040E0EF
:101C10000E946505882309F47ECFC4018B5C9D4F2B
:101C2000D3019C012A0D3B1DFC012E173F0709F42F
:101C30006CC041914D93F9CFDC011496BC90BA94DD
:101C4000B0228114910479F4B1100DC0452B462BBC
:101C5000472B69F5F6018789908DA18DB28D86831A
:101C60009783A087B187D6015B96ED91FC915C9735
:101C700016966D917D918D919C9119976250710985
:101C800081099109258504C0660F771F881F991F58
:101C90002A95D2F70685178520893189600F711F33
:101CA000821F931F6B0D711D811D911D91CFD60158
:101CB00016964D915D916D917C9119972A813B818A
:101CC0000E947A078111CFCF26CF7301850194013D
:101CD000AB01BC0180913504909136040E9406044A
:101CE000882309F418CF6A0C7B1CF6018285938542
:101CF000A485B5858A0D9B1DA11DB11D8287938783
:101D0000A487B5874A185B083CCF281B390B620EA5
:101D1000731EEBCF2A94232809F0FDCE898190E031
:101D2000FCCEFC01818D928D009711F00C94710D09
:101D30008FEF9FEF08950F931F93CF93DF93EC01E5
:101D4000898D9A8D10E000E0009799F00E94710D46
:101D50008C010F3F100769F0898D9A8DFC01428537
:101D600053856485758541505109610971090E9447
:101D7000BA08C801DF91CF911F910F91089560E0DB
:101D800084E00C94E600FB0101900020E9F7319714
:101D9000AF01461B570B0C94350D8F929F92AF925B
:101DA000BF92EF92FF920F931F93CF93DF93CDB724
:101DB000DEB7A1970FB6F894DEBF0FBECDBF7C0192
:101DC000FA01CB0119A2223008F42AE08E010F5D3E
:101DD0001F4F822E912CB12CA12CBF01A501940183
:101DE0000E94C11BF901CA016A300CF5605DD8017F
:101DF0006E938D01232B242B252B79F790E080E027
:101E0000109721F0BD01C7010E94C30EA1960FB625
:101E1000F894DEBF0FBECDBFDF91CF911F910F9120
:101E2000FF90EF90BF90AF909F908F900895695C66
:101E3000DECFFC0180819181009711F00C94851C0C
:101E400008952F923F924F925F926F927F928F925E
:101E50009F92AF92BF92CF92DF92EF92FF921F9329
:101E6000CF93DF93EC016A017B01722EAB019601E7
:101E7000CB01B6010E94BC1B60E571E0811126C058
:101E800046015701E894B7F82FEF3FEF4FE75FE7C0
:101E9000C501B4010E94BC1B81110CC02FEF3FEFA4
:101EA0004FE75FE7C501B4010E94341964E571E0B2
:101EB000181664F02FEF3FEF4FE75FE4C701B6015C
:101EC0000E94B71B1816B4F468E571E0CE01DF91EB
:101ED000CF911F91FF90EF90DF90CF90BF90AF9088
:101EE0009F908F907F906F905F904F903F902F903A
:101EF0000C94C30E2FEF3FEF4FE75FECC701B60125
:101F00000E94341987FDE0CF20E030E0A901C7012D
:101F1000B6010E943419312C212C87FF09C06DE2D3
:101F2000CE010E946F0D1C01F7FAF094F7F8F094BF
:101F300010E060E070E080E09FE3711641F020E087
:101F400030E040E251E40E94161B1F5FF6CFA7016C
:101F500096010E94AA1A2B013C010E94881B4B018A
:101F60005C012AE0BC01A401CE010E94CD0E7C01DF
:101F7000E20CF31C1123C1F1C501B4010E9439190F
:101F80009B01AC01C301B2010E94A91A4B015C0183
:101F90006EE2CE010E946F0DE80EF91E115020F185
:101FA00020E030E040E251E4C501B4010E949A19FA
:101FB0002B013C010E94881B4B01B12CA12C2AE073
:101FC000B501A401CE010E94CD0EE80EF91EC50197
:101FD000B4010E9439199B01AC01C301B2010E94F6
:101FE000A91A4B015C01DACFC701DF91CF911F9194
:101FF000FF90EF90DF90CF90BF90AF909F908F9029
:102000007F906F905F904F903F902F900895CF9268
:10201000DF92EF92FF921F93CF93DF93EC0180E268
:10202000689FF0011124EB5CFD4F9385917161F085
:10203000842F827449F080E0DF91CF911F91FF904F
:10204000EF90DF90CF900895142F6A8B809100015C
:1020500090910101A0910201B09103018E879F87A9
:10206000A88BB98BC488D588F12CE12C7601DD24AE
:10207000CC24CF8AD88EE98EFA8E828D938DB0E0F3
:10208000A0E0AC01BD014C295D296E297F294F8B51
:10209000588F698F7A8F83858871B1F4848D958D7F
:1020A000A68DB78D8B8B9C8BAD8BBE8B81E08D838A
:1020B0001F701C831E821F82188619861A861B8633
:1020C0001C861D8681E0B8CF803109F0B4CF9E0117
:1020D0002D5E3F4F8B8D9C8D0E94FB07882309F45A
:1020E000AACF84E0E4CFEF92FF920F931F93CF9398
:1020F000DF93EC017B01FB0101900020E9F73197B0
:102100008F01061B170B88819981009729F02A817E
:102110003B812017310788F4B8016F5F7F4F0E9421
:102120000E1D0097B9F0998388831B830A832C8145
:102130003D81232B11F4FC0110821D830C83B70118
:1021400088819981DF91CF911F910F91FF90EF903E
:102150000C94EC1D88819981009711F00E94851CD8
:10216000198218821D821C821B821A82DF91CF91F4
:102170001F910F91FF90EF900895CF93DF9385ED1E
:102180008093BC008091AF019091B001A091B1010A
:10219000B091B2010796A11DB11D23E0B695A79598
:1021A000979587952A95D1F72091BC0024FD03C00F
:1021B0001092F70136C04091AF015091B00160918B
:1021C000B1017091B201452B462B472B69F3009763
:1021D000A105B10541F02AE22A95F1F700C0019767
:1021E000A109B109E1CF8091AE0191E09093AD01D9
:1021F0008823B9F0C091B800D091BA008091BC009A
:102200008A7B8093BC0060E082E10E94E60060E08F
:1022100083E10E94E6000E94F302D093BA00C093CB
:10222000B800DF91CF9108953F924F925F926F92E5
:102230007F928F929F92AF92BF92CF92DF92EF9256
:10224000FF920F931F93CF93DF93CDB7DEB72B97FA
:102250000FB6F894DEBF0FBECDBF7C01FE013196F4
:10226000CE010C966F0130E23193E817F907E1F7E0
:10227000DA0130E087E09D91B92E992309F43CC042
:102280009E32F1F48A30C9F480E02B960FB6F894B0
:10229000DEBF0FBECDBFDF91CF911F910F91FF9099
:1022A000EF90DF90CF90BF90AF909F908F907F90F6
:1022B0006F905F904F903F90089538E08AE0DBCFB9
:1022C000E8E6F0E04491442321F031969413FACFEC
:1022D000DBCF8317C8F24FED490F4E35A8F64FE913
:1022E000490F4A3118F440EEB42EB90EF601E30F4F
:1022F000F11DB0823F5FBFCF8981803229F2322E3B
:102300008B01DB015B968D919C915C97F701948F1B
:10231000838F16961D921D921D921C921997FB0198
:102320001286138614861586F80182859385A48506
:10233000B585438954896589768984179507A607E9
:10234000B70708F04DC025E0B695A79597958795F6
:102350002A95D1F7F82FFF70AF2ED80115968C91E2
:10236000823008F491CFC8010E94710D97FD8CCF87
:10237000F80182859385A485B5854F96A11DB11D71
:1023800082879387A487B587F0E2AF9EB0011124BE
:102390006B5C7D4F6115710509F476CFDB018C9183
:1023A000882341F0853E09F062C0BB2029F0BB24A0
:1023B000B394BACFB1100EC0F701A28A8091000188
:1023C00090910101A0910201B09103018687978746
:1023D000A08BB18BDB018C918111E9CFBB24B3942D
:1023E000832D8271823109F04FCFBB2009F44DC09B
:1023F000F701668577858089918941E00E946505AE
:10240000882309F441CFD70152968C91B0E28B9F7B
:10241000C00111248B5C9D4F009709F435CFFC015E
:102420003A9626E1DF011D922A95E9F72BE0F601A5
:10243000DC0101900D922A95E1F721E238E2FC01DE
:10244000318B208B40E058E057874687338B228BB7
:10245000318F208F578B468B81E00E943A0588236D
:1024600009F412CF432DD70152966C910AC04BE06C
:1024700050E0C6010E94CB1D892B09F055CF432D9A
:102480006A2DC7010E94071000CFF80185818230B4
:1024900009F4FACEC8010E944E09882309F4F4CE4B
:1024A000D8015B96ED91FC915C9716968D909D906E
:1024B000AD90BC901997B2E08B1A9108A108B108B1
:1024C000858504C0880C991CAA1CBB1C8A95D2F770
:1024D00086859785A089B189880E991EAA1EBB1E84
:1024E000848124013501480E511C611C711C841427
:1024F0009504A604B70409F1E1E04E1A51086108F9
:10250000710881E00E943A05882309F4BDCEE5E315
:10251000F2E0119285E394E08E179F07D1F7409285
:1025200000015092010160920201709203018091BA
:102530008801816080938801DACFD8015B96ED91A4
:10254000FC91258580E092E0A0E0B0E004C0880F17
:10255000991FAA1FBB1F2A95D2F7F80143895489F6
:1025600065897689840F951FA61FB71F838B948B6F
:10257000A58BB68BD70152961C9285E392E04FCF84
:10258000EF92FF920F931F93CF93DF93EC017B01A8
:102590008A011B821A8288EE93E0A0E0B0E08C836F
:1025A0009D83AE83BF8382E191E0998388838DE12F
:1025B00090E00E94E91B9A8F898F009779F02DE1B6
:1025C000F701DC0101900D922A95E1F74CE050E013
:1025D000B801CE010C960E94F31D188EDF91CF91A9
:1025E0001F910F91FF90EF9008951F920F920FB6D9
:1025F0000F9211242F933F938F939F93AF93BF9389
:1026000080912D0290912E02A0912F02B091300264
:1026100030912C0223E0230F2D3758F50196A11D90
:10262000B11D20932C0280932D0290932E02A09333
:102630002F02B09330028091310290913202A0912A
:102640003302B09134020196A11DB11D8093310275
:1026500090933202A0933302B0933402BF91AF91B2
:102660009F918F913F912F910F900FBE0F901F90D0
:10267000189526E8230F0296A11DB11DD2CF1F92F7
:102680000F920FB60F9211242F933F934F935F93A6
:102690006F937F938F939F93AF93BF93EF93FF932A
:1026A000E0910601F09107010995FF91EF91BF912B
:1026B000AF919F918F917F916F915F914F913F91DA
:1026C0002F910F900FBE0F901F9018951F920F9291
:1026D0000FB60F9211242F933F934F935F936F93F5
:1026E0007F938F939F93AF93BF93EF93FF93E0916B
:1026F0000401F09105010995FF91EF91BF91AF9110
:102700009F918F917F916F915F914F913F912F9109
:102710000F900FBE0F901F9018951F920F920FB63B
:102720000F9211242F933F934F935F936F937F9357
:102730008F939F93AF93BF93EF93FF9387E394E0BF
:102740000E943D02FF91EF91BF91AF919F918F91B8
:102750007F916F915F914F913F912F910F900FBE9D
:102760000F901F9018951F920F920FB60F92112481
:102770002F938F939F93EF93FF93E0914704F091F2
:1027800048048081E0914D04F0914E0482FD1BC00D
:102790009081809150048F5F8F7320915104821734
:1027A00041F0E0915004F0E0E95CFB4F958F80939D
:1027B0005004FF91EF919F918F912F910F900FBE39
:1027C0000F901F9018958081F4CF1F920F920FB633
:1027D0000F9211242F933F934F935F936F937F93A7
:1027E0008F939F93AF93BF93EF93FF938091B90023
:1027F000887F803609F44AC0F0F5883209F4A7C012
:1028000018F5803109F49BC0B8F4882309F4F9C0A5
:10281000883009F494C0FF91EF91BF91AF919F91DF
:102820008F917F916F915F914F913F912F910F9079
:102830000FBE0F901F901895883109F488C0803220
:1028400051F78093F60114C0803409F49DC040F420
:102850008033B9F38833F9F68093F60185ECB0C084
:10286000803509F485C0883509F496C0883499F616
:102870000E94BD10D0CF883909F48CC038F5883754
:1028800029F050F4883611F0803729F683E08093E0
:10289000F7011092F50157C0883809F47BC08039E0
:1028A00019F0803809F0B7CF8091F501803208F037
:1028B00071C0E091F50181E08E0F8093F501809168
:1028C000BB00F0E0EB52FE4F80833DC0803B39F00F
:1028D000E0F4803A09F479C0883A09F09CCF84E0AA
:1028E0008093F7011092D4011092D301E0911F025E
:1028F000F091200209958091D30181110FC081E0F0
:102900008093D3011092B30109C0803C09F4A6CF93
:10291000883C09F4A3CF883B09F07DCFE091D40136
:1029200081E08E0F8093D401F0E0ED54FE4F808162
:102930008093BB009091D4018091D30129C08091F4
:102940001C028093BB0085EC8093BC0064CF909107
:102950001B0280911A02981758F5E0911B0281E042
:102960008E0F80931B02F0E0E650FE4F8081E9CF8E
:10297000E0911B0281E08E0F80931B028091BB00CF
:10298000F0E0E650FE4F808390911B0280911A0286
:102990009817C8F285E8D8CFE0911B0281E08E0F2E
:1029A00080931B028091BB00F0E0E650FE4F8083D5
:1029B0008091F90181115CCF81E08093F80184EA74
:1029C0008093BC001092F70126CF85EC8093BC0069
:1029D0001092F7018091F501803230F4E091F50119
:1029E000F0E0EB52FE4F10826091F50170E0E09153
:1029F0001D02F0911E0285ED91E009951092F501FE
:102A00000ACF1092F60134CFE7E3F4E0138212828A
:102A100088EE93E0A0E0B0E084839583A683B7833B
:102A200024E231E03183208325EC30E035872487B0
:102A300024EC30E03787268720EC30E0318B208B88
:102A400021EC30E0338B228B22EC30E0358B248B71
:102A500026EC30E0378B268B118E128E138E148E5F
:102A6000E4EDF4E01382128284839583A683B78316
:102A700086E391E091838083E0EEF4E080E580835B
:102A80001182E2EEF4E0158216821186138682E04E
:102A900090E0A0E0B0E084879587A687B78713A26F
:102AA00015A614A688E491E093A782A717A6089517
:102AB000CF93DF93CDB7DEB7C458D1090FB6F894E2
:102AC000DEBF0FBECDBF789484B5826084BD84B56F
:102AD000816084BD85B5826085BD85B5816085BD19
:102AE00080916E00816080936E00109281008091D1
:102AF0008100826080938100809181008160809359
:102B00008100809180008160809380008091B1007D
:102B100084608093B1008091B00081608093B000A8
:102B200080917A00846080937A0080917A0082603C
:102B300080937A0080917A00816080937A008091FE
:102B40007A00806880937A001092C100E091470477
:102B5000F091480482E08083E0914304F0914404C2
:102B60001082E0914504F09146048FEC808310922E
:102B70004F04E0914B04F0914C0486E08083E09197
:102B80004904F0914A04808180618083E091490486
:102B9000F0914A04808188608083E0914904F0913B
:102BA0004A04808180688083E0914904F0914A045E
:102BB00080818F7D808361E084E00E9414010E9407
:102BC000BF0E62E083E00E94140162E082E00E9496
:102BD000140162E085E00E94140110922402109218
:102BE000230210922202109221020E94F3028CEB27
:102BF00091E09093200280931F028DEB91E09093DF
:102C00001E0280931D0280911105882321F08CE023
:102C100095E00E94F20A1092ED041092EB041092DB
:102C2000E8041092E7048AE08093E6040E949C0185
:102C30008B0161E08091E6040E94140161E08091C3
:102C4000E6040E94E600FFB6F89480912502811107
:102C500027C0E0EAF0E08491E4EBF0E09491E82F03
:102C6000F0E0EE0FFF1FE858FF4FA591B491EC91F3
:102C7000E92321F461E08AE00E94E60061E08AE055
:102C80000E9414018CB580618CBD8CB580648CBDB4
:102C900061E08DE00E94140161E08BE00E9414016C
:102CA000809125028F5F80932502FFBE82E580938D
:102CB000E0041092E1048091E0049091E1040E940C
:102CC00090032AE0F22E8FEF0E946B03FA94F1102A
:102CD000FACF82EE94E00E94930320E030E0A90155
:102CE00060E082EE94E00E94A903F82E8093EC0449
:102CF00081E0F81689F00E949C01601B710B613D18
:102D0000774058F381E08093E70482EE94E00E94DC
:102D1000600383E090E07BC02AEA31E040E050E0CD
:102D200068E082EE94E00E94A90382FF2AC0F0923C
:102D3000ED048091ED04C12CD12C7601823029F470
:102D4000C12CD12CE12C80E4F82E20E030E0A90148
:102D500067E382EE94E00E94A903A701960169E26D
:102D600082EE94E00E94A9038093EC048823D1F0C2
:102D70000E949C01601B710B613D774030F388E03D
:102D8000C2CF94E0F92E0E9472038093EC04FA946F
:102D9000F110F9CF8A3A11F082E0B5CF82E080934A
:102DA000ED04C7CF8091ED048230D1F420E030E013
:102DB000A9016AE382EE94E00E94A903882311F03E
:102DC00086E0A1CF0E947203807C803C19F483E0EE
:102DD0008093ED040E9472030E9472030E947203AA
:102DE00082EE94E00E94600380E58093E0041092FC
:102DF000E10481E00E94AF05882351F18CE095E069
:102E00000E946608882309F484CF81E090E09093C3
:102E10002B0280932A026E01BEE1CB0ED11C809161
:102E20002A0290912B028130910501F1C0F082308D
:102E3000910581F1039709F410C280E090E0892B9D
:102E400071F30E942902882351F30E940000E7CF0A
:102E500080E00E94AF05882309F45BCFCFCFE3E089
:102E6000F0E0F0932B02E0932A02E7CF0E94BF0E1E
:102E700083E00E94BD00019731F482E090E09093DE
:102E80002B0280932A0262E370E080E090E00E94CF
:102E90006A01D3CFC158DF4F19821882CF57D04073
:102EA000CF57DF4F19821882C158D040CD57DF4F1E
:102EB00019821882C358D0406AE671E0CE01815869
:102EC0009F4F0E94731010922602109227021092B8
:102ED00028021092290261E084E00E94E6000E942C
:102EE0009C0182E00E94BD00019709F0AFC10E94E1
:102EF000BF0EEB961FAE1EAEEB97ED961FAE1EAE4D
:102F0000ED97EF961FAE1EAEEF976AE671E0CE0129
:102F100087589F4F0E94731080E480937C008091BB
:102F20007A00806480937A0080917A0086FDFCCFDD
:102F30002090780030907900E5961FAE1EAEE597A0
:102F4000E7961FAE1EAEE797E9961FAE1EAEE99755
:102F50006EE771E0CE018D589F4F0E947310409034
:102F6000260250902702609028027090290219A230
:102F700018A288E491E09F8F8E8F1BA21C821B8277
:102F80009A8389831E82C6010E946608DE0111961B
:102F90005D0176010CE511E06FE270E0C8010E946E
:102FA000E11D009709F460C0F80120812F3269F417
:102FB0000F5F1F4F9A2D8B2D5701E92EF82E9E2D56
:102FC0008F2D7501A92EB82EE7CF801B8D3008F00C
:102FD0008CE0882E912CA401B801CE01885A9F4F15
:102FE0000E94F31DE8E5F0E0EC0FFD1FE80DF91D70
:102FF0001082C5010E94F20AD50115968C91882392
:1030000019F11EAE1DAE88E491E09CAF8BAF219606
:103010001FAE219710E000E0045A1E4FF801808196
:1030200081112AC0BE01655C7F4FCE0101960E94CE
:10303000AB0C41E851E0BE016F5F7F4FCE01885A73
:103040009F4F0E94C0123FC021E0AE01485A5F4F1F
:10305000B701C5010E941411882399F2080D191DAA
:10306000C7010E94F20AABCF0C551140B701CE0147
:10307000CB960E94AB0CD0CF19A218A288E491E0A5
:103080009F8F8E8F1BA221968FAD21978111C1C07A
:103090006C961FAE1EAE6C9788EE93E0A0E0B0E099
:1030A000A0968CAF9DAFAEAFBFAFA09782E191E08D
:1030B0006A969FAF8EAF6A97E3961FAE1EAEE397F8
:1030C000A5961FAEA597E396EEADFFADE3973097BB
:1030D00009F489C08581882309F485C0BE0161583F
:1030E0007F4FCE01885A9F4F0E94520D6CE2CE0155
:1030F000885A9F4F0E946F0DBE0167587F4FCE01C7
:10310000885A9F4F0E94520D6CE2CE01885A9F4F01
:103110000E946F0D2AE0B301A201CE01885A9F4F91
:103120000E94CD0E6CE2CE01885A9F4F0E946F0D17
:10313000C301B2010E94391920E030E046E153E4B6
:103140000E94161BAB01BC0123E0CE01885A9F4FA1
:103150000E94210F6CE2CE01885A9F4F0E946F0D92
:10316000B101330C880B990B0E943B1920E030E031
:1031700040EA50E40E949A1920E030E040E85AE327
:103180000E949A1920E030E040E650E40E949A192B
:10319000AB01BC0122E0CE01885A9F4F0E94210F53
:1031A0006CE2CE01885A9F4F0E946F0DBE016D5890
:1031B0007F4FCE01885A9F4F0E94520D63E871E005
:1031C000CE01885A9F4F0E94C30EE3968EAD9FADED
:1031D000E397009741F00E94F20AE3968EAD9FAD0F
:1031E000E3970E94851CCE018D589F4F0E94190FB6
:1031F000CE0187589F4F0E94190FCE0181589F4FD3
:103200000E94190F81E090E090932B0280932A0294
:1032100014CE27E1A801BE01655C7F4FC6010E9464
:103220001411882309F434CFCE01CB960E94F20A00
:1032300049A95AA96BA97CA9C6010E94BA08B6017E
:10324000CE0101960E94AB0CA801F5CE6AE070E0B9
:1032500080E090E00E946A0144CE0E94BF0E64EFBD
:1032600071E080E090E013CE0E94761908F481E0CE
:103270000895E89409C097FB3EF490958095709569
:1032800061957F4F8F4F9F4F9923A9F0F92F96E9B2
:10329000BB279395F695879577956795B795F11127
:1032A000F8CFFAF4BB0F11F460FF1BC06F5F7F4FC4
:1032B0008F4F9F4F16C0882311F096E911C07723D6
:1032C00021F09EE8872F762F05C0662371F096E8DF
:1032D000862F70E060E02AF09A95660F771F881FAE
:1032E000DAF7880F9695879597F90895990F000852
:1032F000550FAA0BE0E8FEEF16161706E807F907C8
:10330000C0F012161306E407F50798F0621B730B62
:10331000840B950B39F40A2661F0232B242B252BE3
:1033200021F408950A2609F4A140A6958FEF811D86
:10333000811D08950E94AD190C941E1A0E94101A46
:1033400038F00E94171A20F0952311F00C94071AF8
:103350000C940D1A11240C94521A0E942F1A70F317
:10336000959FC1F3950F50E0551F629FF001729F2A
:10337000BB27F00DB11D639FAA27F00DB11DAA1F39
:10338000649F6627B00DA11D661F829F2227B00D86
:10339000A11D621F739FB00DA11D621F839FA00D11
:1033A000611D221F749F3327A00D611D231F849F61
:1033B000600D211D822F762F6A2F11249F575040B8
:1033C0009AF0F1F088234AF0EE0FFF1FBB1F661F33
:1033D000771F881F91505040A9F79E3F510580F0FC
:1033E0000C94071A0C94521A5F3FE4F3983ED4F3FE
:1033F000869577956795B795F795E7959F5FC1F7A0
:10340000FE2B880F911D9695879597F9089597F94A
:103410009F6780E870E060E008959FEF80EC08957A
:1034200000240A94161617061806090608950024A3
:103430000A9412161306140605060895092E03941D
:10344000000C11F4882352F0BB0F40F4BF2B11F491
:1034500060FF04C06F5F7F4F8F4F9F4F089557FDF0
:103460009058440F551F59F05F3F71F04795880FF2
:1034700097FB991F61F09F3F79F087950895121689
:1034800013061406551FF2CF4695F1DF08C0161635
:1034900017061806991FF1CF8695710561050894E6
:1034A0000895E894BB2766277727CB0197F90895FD
:1034B0000E949A1AA59F900DB49F900DA49F800D15
:1034C000911D112408952F923F924F925F926F9217
:1034D0007F928F929F92AF92BF92CF92DF92EF92A4
:1034E000FF920F931F93CF93DF93CDB7DEB7CA1B25
:1034F000DB0B0FB6F894DEBF0FBECDBF09942A8850
:10350000398848885F846E847D848C849B84AA84F7
:10351000B984C884DF80EE80FD800C811B81AA8184
:10352000B981CE0FD11D0FB6F894DEBF0FBECDBF4F
:10353000ED010895A29FB001B39FC001A39F700D3C
:10354000811D1124911DB29F700D811D1124911DAB
:1035500008955058BB27AA270E94C11A0C941E1A1E
:103560000E94101A38F00E94171A20F039F49F3F79
:1035700019F426F40C940D1A0EF4E095E7FB0C9464
:10358000071AE92F0E942F1A58F3BA176207730718
:103590008407950720F079F4A6F50C94511A0EF4DF
:1035A000E0950B2EBA2FA02D0B01B90190010C0153
:1035B000CA01A0011124FF27591B99F0593F50F46B
:1035C000503E68F11A16F040A22F232F342F4427C3
:1035D000585FF3CF469537952795A795F0405395BB
:1035E000C9F77EF41F16BA0B620B730B840BBAF08B
:1035F0009150A1F0FF0FBB1F661F771F881FC2F7F6
:103600000EC0BA0F621F731F841F48F48795779509
:103610006795B795F7959E3F08F0B0CF9395880FC3
:1036200008F09927EE0F9795879508950E942A1B19
:103630000C941E1A0E94171A58F00E94101A40F09B
:1036400029F45F3F29F00C94071A51110C94521A77
:103650000C940D1A0E942F1A68F39923B1F3552385
:1036600091F3951B550BBB27AA2762177307840795
:1036700038F09F5F5F4F220F331F441FAA1FA9F32B
:1036800035D00E2E3AF0E0E832D091505040E69519
:10369000001CCAF72BD0FE2F29D0660F771F881F7A
:1036A000BB1F261737074807AB07B0E809F0BB0B6D
:1036B000802DBF01FF2793585F4F3AF09E3F510581
:1036C00078F00C94071A0C94521A5F3FE4F3983E7A
:1036D000D4F3869577956795B795F7959F5FC9F76A
:1036E000880F911D9695879597F90895E1E0660FEB
:1036F000771F881FBB1F621773078407BA0720F064
:10370000621B730B840BBA0BEE1F88F7E0950895CC
:103710000E94371A88F09F5798F0B92F9927B75110
:10372000B0F0E1F0660F771F881F991F1AF0BA9565
:10373000C9F714C0B13091F00E94511AB1E0089558
:103740000C94511A672F782F8827B85F39F0B93F4A
:10375000CCF3869577956795B395D9F73EF4909518
:103760008095709561957F4F8F4F9F4F08950E9470
:10377000761908F48FEF08950E947619880B990B3B
:103780000895A1E21A2EAA1BBB1BFD010DC0AA1FA2
:10379000BB1FEE1FFF1FA217B307E407F50720F0BA
:1037A000A21BB30BE40BF50B661F771F881F991F35
:1037B0001A9469F760957095809590959B01AC017E
:1037C000BD01CF010895EE0FFF1F0590F491E02D8C
:1037D00009940F931F93CF93DF938230910510F4D8
:1037E00082E090E0E0912D05F0912E0530E020E0A0
:1037F000B0E0A0E0309799F42115310509F44AC0F2
:10380000281B390B24303105D8F58A819B8161153D
:10381000710589F1FB0193838283FE0111C0408110
:1038200051810281138148175907E0F04817590761
:1038300099F4109761F012960C93129713961C93BB
:103840003296CF01DF91CF911F910F910895009390
:103850002D0510932E05F4CF2115310551F0421797
:10386000530738F0A901DB019A01BD01DF01F8011E
:10387000C1CFEF01F9CF90932E0580932D05CDCFC9
:10388000FE01E20FF31F8193919322503109398396
:103890002883D7CF20912B0530912C05232B41F481
:1038A00020910A0130910B0130932C0520932B05B8
:1038B00020910801309109012115310541F42DB7FE
:1038C0003EB740910C0150910D01241B350BE09146
:1038D0002B05F0912C05E217F307A0F42E1B3F0BEC
:1038E0002817390778F0AC014E5F5F4F2417350772
:1038F00048F04E0F5F1F50932C0540932B0581938A
:1039000091939FCFF0E0E0E09CCFCF93DF930097BF
:10391000E9F0FC01329713821282A0912D05B0913B
:103920002E05ED0130E020E01097A1F420813181D7
:10393000820F931F20912B0530912C0528173907F2
:1039400009F061C0F0932C05E0932B05DF91CF9136
:103950000895EA01CE17DF07E8F54A815B819E01F1
:1039600041155105B1F7E901FB83EA83499159916A
:10397000C40FD51FEC17FD0761F480819181029679
:10398000840F951FE90199838883828193819B83AA
:103990008A83F0E0E0E012968D919C911397009756
:1039A000B9F52D913C911197CD010296820F931F8D
:1039B00020912B0530912C052817390739F63097BF
:1039C00051F510922E0510922D05B0932C05A09361
:1039D0002B05BCCFD383C28340815181840F951FB7
:1039E000C817D90761F44E5F5F4F88819981480FEE
:1039F000591F518340838A819B8193838283211540
:103A0000310509F0B0CFF0932E05E0932D059ECF40
:103A1000FD01DC01C0CF13821282D7CFB0E0A0E05D
:103A2000E4E1FDE10C94651A8C01009751F4CB019F
:103A30000E94E91B8C01C801CDB7DEB7E0E10C9410
:103A4000811AFC01E60FF71F9C0122503109E21791
:103A5000F30708F49DC0D901CD91DC911197C617E9
:103A6000D70798F0C530D10530F3CE0104978617FB
:103A7000970708F3C61BD70B2297C193D1936D9379
:103A80007C93CF010E94851CD6CF5B01AC1ABD0A86
:103A90004C018C0E9D1EA0912D05B0912E05512C30
:103AA000412CF12CE12C109731F580912B05909150
:103AB0002C058815990509F05CC04616570608F0D4
:103AC00058C08091080190910901009741F48DB789
:103AD0009EB740910C0150910D01841B950BE81786
:103AE000F90708F055C0F0932C05E0932B05F90178
:103AF00071836083A0CF8D919C91119712966C90E9
:103B0000129713967C901397A815B90559F56C0177
:103B100042E0C40ED11CCA14DB0420F1AC014A19E6
:103B20005B09DA011296159780F0628273825183E5
:103B30004083D9016D937C93E114F10471F0D701B6
:103B40001396FC93EE93129776CF22968C0F9D1FBF
:103B5000F90191838083F301EFCFF0932E05E09379
:103B60002D0569CF4816590608F42C017D01D301B3
:103B70009ACFCB010E94E91B7C01009749F0AE016E
:103B8000B8010E94D81DC8010E94851C870153CF2F
:103B900010E000E050CFFB01DC0104C08D910190EA
:103BA000801921F441505040C8F7881B990B0895A3
:103BB000FB01DC0102C001900D9241505040D8F74A
:103BC0000895FC018191861721F08823D9F7992760
:103BD00008953197CF010895FB01DC0101900D920A
:103BE0000020E1F70895FB01DC014150504048F00E
:103BF00001900D920020C9F701C01D924150504024
:083C0000E0F70895F894FFCFEE
:103C0800FFFFFFFFBE01BE0100002F05800000007E
:103C18000000590D350D250DFC0C050D910E9B0E60
:103C2800000000005F02BF01EC01AC021D02FB01B5
:103C38000F020000000046033B035703110334033F
:103C480021031203000000009A0CBF01940AFB0C28
:103C58006E616E00696E66006F7666002F66696C2D
:103C68006C5F6C6F672E63737600313937302D3097
:103C7800312D30312030303A30303A3030004F4B2F
:063C8800002F000D0A00F0
:00000001FF
