:100000000C9440010C94DC180C94B5180C94680105
:100010000C9468010C9468010C9468010C946801BC
:100020000C9468010C9468010C9468010C946801AC
:100030000C9468010C9468010C9468010C9468019C
:100040000C946B180C9468010C9429190C940319E6
:100050000C9468010C9468010C9468010C9468017C
:100060000C945B190C9468017C3C3E5E2B3D3F2F49
:100070005B5D3B2C2A225C005B4F4B5D2053442E82
:10008000626567696E005B4552525D2053442E6283
:100090006567696E206661696C6564005B4F4B5DE6
:1000A000205254432E626567696E005B4552525D73
:1000B0002052544320626567696E206661696C65F1
:1000C00064005B424F4F545D20496E6974204F4B72
:1000D000202D3E2049444C45005B424F4F545D204B
:1000E000496E6974204641494C202D3E20455252AC
:1000F0004F52005B424F4F545D20436F6F6C616EF7
:1001000074206175746F6D6174696F6E20737461B2
:100110007274005B46494C4C494E475D204D415836
:1001200020726561636865642C2070756C736573FB
:100130003D005B46494C4C494E475D2054494D4576
:100140004F55542C2076616C766520434C4F5345B7
:1001500044005B46494C4C494E475D2053746172E4
:10016000742C2076616C7665204F50454E005B46BE
:10017000494C4C494E475D204552524F52202D3E2E
:10018000204552524F52207374617465005B46499A
:100190004C4C494E475D204379636C65204F4B20A2
:1001A0002D3E2049444C45005B49444C455D204D63
:1001B000494E20616374697665202D3E2046494C86
:1001C0004C494E47005B4552524F525D2056616C80
:1001D000766520636C6F7365642C20776169746940
:1001E0006E67207265736574005B4552525D2055E1
:1001F0006E657870656374656420424F4F54207358
:1002000074617465005B464C4F575D20636F756E7B
:10021000743D005B414E414C4F475D2070685F72FA
:1002200061773D0000000000240027002A00000044
:100230000000250028002B000000000023002600FD
:100240002900040404040404040402020202020259
:10025000030303030303010204081020408001028A
:100260000408102001020408102000000008000209
:1002700001000003040700000000000000007A1ADB
:1002800011241FBECFEFD8E0DEBFCDBF25E0ACEA22
:10029000B1E001C01D92A639B207E1F711E0A0E07C
:1002A000B1E0EEEEFCE402C005900D92AC3AB1076D
:1002B000D9F711E0C0E4D1E004C02197FE010E940B
:1002C000A821CF33D107C9F70E94E61A0C947526EE
:1002D0000C94000080E480937C0080917A0080641C
:1002E00080937A0080917A0086FDFCCF809178001F
:1002F000909179000895833081F028F4813099F04D
:100300008230A9F008958730A9F08830C9F0843090
:10031000B1F4809180008F7D03C0809180008F7741
:1003200080938000089584B58F7784BD089584B547
:100330008F7DFBCF8091B0008F778093B0000895C0
:100340008091B0008F7DF9CFCF93DF93282F30E0DD
:10035000F901E659FD4F8491F901EA5AFD4FD49114
:10036000F901EE5BFD4FC491CC23A1F081110E94F5
:100370007B01EC2FF0E0EE0FFF1FE85CFD4FA59135
:10038000B491EC91ED2381E090E009F480E0DF91FD
:10039000CF91089580E090E0FACF1F93CF93DF9341
:1003A000282F30E0F901E659FD4F8491F901EA5A0E
:1003B000FD4FD491F901EE5BFD4FC491CC23A9F020
:1003C000162F81110E947B01EC2FF0E0EE0FFF1F32
:1003D000E25DFD4FA591B4918FB7F894EC911111A6
:1003E00008C0D095DE23DC938FBFDF91CF911F91A2
:1003F0000895DE2BF8CFCF93DF9390E0FC01EA5A0B
:10040000FD4F24918E5B9D4FFC0184918823D1F098
:1004100090E0880F991FFC01EC5DFD4FA591B49110
:10042000FC01E25DFD4FC591D491623071F49FB73C
:10043000F8943C91822F809583238C93E8812E2B16
:1004400028839FBFDF91CF9108958FB7F894EC91E7
:100450002E2B2C938FBFF6CF3FB7F89480911402C8
:1004600090911502A0911602B091170226B5A89B93
:1004700005C02F3F19F00196A11DB11D3FBFBA2F36
:10048000A92F982F8827BC01CD01620F711D811DF6
:10049000911D42E0660F771F881F991F4A95D1F77B
:1004A00008958F929F92AF92BF92CF92DF92EF9278
:1004B000FF924B015C010E942C026B017C010E94A7
:1004C0002C026C197D098E099F09683E73408105D5
:1004D0009105A8F321E0821A9108A108B10888EEDD
:1004E000C80E83E0D81EE11CF11C81149104A10404
:1004F000B10429F7FF90EF90DF90CF90BF90AF90BD
:100500009F908F9008952FB7F8946091100270918A
:10051000110280911202909113022FBF08958091D1
:10052000070290910802A0910902B0910A02019677
:10053000A11DB11D8093070290930802A0930902A8
:10054000B0930A020895089508950895DC01ED918D
:10055000FC910190F081E02D0994AF92BF92CF926F
:10056000DF92EF92FF920F931F93CF93DF936C0173
:100570007B018B01040F151FEB015E01AE18BF0854
:10058000C017D10759F06991D601ED91FC91019006
:10059000F081E02DC6010995892B79F7C501DF911E
:1005A000CF911F910F91FF90EF90DF90CF90BF9070
:1005B000AF900895FC01538D448D252F30E0842F9A
:1005C00090E0821B930B541710F0CF96089501977B
:1005D0000895FC01918D828D981761F0A28DAE0F68
:1005E000BF2FB11D5D968C91928D9F5F9F73928FEF
:1005F00090E008958FEF9FEF0895FC01918D828D1B
:10060000981731F0828DE80FF11D858D90E00895E7
:100610008FEF9FEF0895FC01918D228D892F90E03F
:10062000805C9F4F821B91098F73992708958CE8F6
:1006300094E00E940B0321E0892B09F420E0822F33
:10064000089580E090E0892B29F00E941703811122
:100650000C9400000895FC01A48DA80FB92FB11DC2
:10066000A35ABF4F2C91848D90E001968F739927E8
:10067000848FA689B7892C93A089B1898C918370C6
:1006800080648C93938D848D981306C00288F389BF
:10069000E02D80818F7D80830895EF92FF920F93EC
:1006A0001F93CF93DF93EC0181E0888F9B8D8C8D1E
:1006B00098131AC0E889F989808185FF15C09FB712
:1006C000F894EE89FF896083E889F98980818370D5
:1006D000806480839FBF81E090E0DF91CF911F9184
:1006E0000F91FF90EF900895F62E0B8D10E00F5FA5
:1006F0001F4F0F731127E02E8C8D8E110CC00FB67B
:1007000007FCFACFE889F989808185FFF5CFCE0112
:100710000E942B03F1CFEB8DEC0FFD2FF11DE35A5F
:10072000FF4FF0829FB7F8940B8FEA89FB89808195
:100730008062CFCF0F931F93CF93DF938C01D0E0D4
:10074000C0E0F801EC0FFD1F6491662341F08CE8D6
:1007500094E00E944D03892B11F02196F2CFCE0137
:10076000DF91CF911F910F910895CF93DF93EC010B
:10077000888D8823B9F0AA89BB89E889F9898C9189
:1007800085FD03C0808186FD0DC00FB607FCF7CF45
:100790008C9185FFF2CF808185FFEDCFCE010E9445
:1007A0002B03E9CFDF91CF9108952091D401260F3B
:1007B0003327331F21323105ECF420916002FC0114
:1007C00090E080E0243069F082E00895A091D401A7
:1007D0002191AC014C545E4FA40FB52FB11D2C9349
:1007E0000196861798F38091D401680F6093D40125
:1007F00080E0089581E008951092600281E0809386
:100800005F0210923A0261E082E10E94CD0161E054
:1008100083E10E94CD01E9EBF0E080818E7F80834F
:1008200080818D7F808388E48093B80085E4809305
:10083000BC000895CF93DF9391E09093B301882398
:10084000B9F0C091B800D091BA008091BC008A7B09
:100850008093BC0060E082E10E94CD0160E083E112
:100860000E94CD010E94FC03D093BA00C093B8004F
:10087000DF91CF9108958F929F92AF92BF92CF92C6
:10088000DF92EF92FF920F931F93CF93DF93D0915C
:100890008902D13208F0D7C0182FC09188020E9477
:1008A0002C026B017C018091600281116BC082E09F
:1008B0008093600210935F028FEF80935E0210922C
:1008C0005D02D0935C02A8E6B2E0ECE3F2E080E0E7
:1008D000D81391C010923B0280913B02CC0FC82BE1
:1008E000C0933B0280913A02813009F088C0109297
:1008F0003A020E942C026B017C0180913B028093A2
:10090000BB008091620290916302A0916402B09159
:100910006502892B8A2B8B2BA1F00E942C0200915F
:1009200062021091630220916402309165026C1999
:100930007D098E099F09061717072807390708F44C
:1009400042C08091BC0083FDD8CF85EC8093BC0071
:100950000E942C026B017C0180916002823009F4BC
:1009600050C080915E028F3F09F46FC080915E029B
:10097000803209F46CC080915E02803309F469C052
:1009800084E026C08091620290916302A09164028B
:10099000B0916502892B8A2B8B2B09F484CF0E949E
:1009A0002C028090620290906302A0906402B0904A
:1009B00065026C197D098E099F0986169706A8069F
:1009C000B90608F070CF809161020E941A0485E098
:1009D000109267021092890210926602DF91CF9105
:1009E0001F910F91FF90EF90DF90CF90BF90AF904D
:1009F0009F908F9008959D9191938F5F69CF85EE21
:100A0000A5CF8091620290916302A0916402B0919F
:100A10006502892B8A2B8B2B09F49ECF0E942C0216
:100A2000009162021091630220916402309165028C
:100A30006C197D098E099F090617170728073907C2
:100A400008F08ACFC0CF81E0C3CF80E0C1CF82E081
:100A5000BFCF83E0BDCF0895E091190280911802C5
:100A6000E81730F4F0E0E65EFD4F808190E00895F5
:100A70008FEF9FEF089590911902809118022FEF48
:100A80003FEF981748F4E92FF0E0E65EFD4F208134
:100A900030E09F5F90931902C90108958091180278
:100AA00090911902891B990B0895CF92DF92EF92D2
:100AB000FF920F931F93CF93DF937C01CB018A01A9
:100AC00020916602222389F0EB016B01C40ED51E32
:100AD000CC15DD0569F06991D701ED91FC9101908C
:100AE000F081E02DC7010995F3CF642F0E94D50353
:100AF000C801DF91CF911F910F91FF90EF90DF9090
:100B0000CF900895CF93DF931F92CDB7DEB769835F
:100B1000209166022223F9F020918902203258F0B8
:100B200021E030E0FC013383228390E080E00F90ED
:100B3000DF91CF91089580916702E82FF0E0E859A6
:100B4000FD4F998190838F5F809367028093890224
:100B500081E090E0ECCF61E0CE0101960E94D503E8
:100B6000F7CF90E080E008958FB7F8948091AD01C1
:100B70008FBF089561E0FC0184810E94CD018091C6
:100B8000AC0181111092AC0108958EBD00000DB42E
:100B900007FEFDCF8EB508958FEF0C94C5050F931A
:100BA0001F93CF93DF93EC010E9483028B010E947D
:100BB000CC058F3F69F00E948302601B710B6C179C
:100BC0007D07A8F380E0DF91CF911F910F910895E9
:100BD00081E0F9CF8CBD9DBD0895CF93DF93EC01EB
:100BE0008091AC01811109C081E08093AC018091BA
:100BF000290590912A050E94EA0560E08C81DF9129
:100C0000CF910C94CD018F929F92AF92BF92FF92A1
:100C10000F931F93CF93DF93EC01F62E49015A01F6
:100C20008E81882389F08F8198859C012F5F3F4FAB
:100C300038872F838230924018F40E94CC05F3CF7E
:100C4000CE010E94BA051E82CE010E94ED058CE203
:100C500091E00E94CF058F2D80640E94C50508E1B8
:100C600010E0D501C401002E04C0B695A795979554
:100C700087950A94D2F70E94C50508501109083FCC
:100C80008FEF180771F785E9FF2021F028E087E84A
:100C9000F2128FEF0E94C50510E00E94CC058A87F2
:100CA00087FF04C01F3F11F01F5FF7CFDF91CF9187
:100CB0001F910F91FF90BF90AF909F908F900895DC
:100CC000AF92BF92CF92DF92EF92FF920F931F935A
:100CD000CF93DF93EC016901C801820F931F81302C
:100CE000924050F58E81882379F088819981AA817C
:100CF000BB8184179507A607B70731F48F819885C4
:100D0000C816D90608F042C0488359836A837B839A
:100D10008B85833039F089E0440F551F661F771F9C
:100D20008A95D1F79A01AB0161E1CE010E940306D9
:100D3000882389F083E08D83CE010E94BA0580E08C
:100D4000DF91CF911F910F91FF90EF90DF90CF90A7
:100D5000BF90AF9008950E9483025B010E94CC0572
:100D60008A878F3F69F40E9483026A197B096D327A
:100D70007140A0F38FE08D83CE010E94BA05DCCFD5
:100D80008E3F89F418861F8281E08E838F8198853B
:100D90008C159D0550F40E94CC058F819885019695
:100DA00098878F83F3CF8DE0E6CF6701E00EF11EC9
:100DB0000E94CC05F60181936F01EE15FF05C1F786
:100DC0008F819885080F191F18870F8389858823BD
:100DD00019F001151240A0F08E81882389F08F81CF
:100DE00098859C012F5F3F4F38872F838230924038
:100DF00018F40E94CC05F3CFCE010E94BA051E82E2
:100E000081E09ECFCF92DF92EF92FF920F93CF932C
:100E1000DF93EC01690182E141155105610571051E
:100E200099F08B85833039F089E0440F551F661F98
:100E3000771F8A95D1F79A01AB0168E1CE010E9434
:100E40000306882319F084E08D832DC08EEF0E9465
:100E5000C50576018EEFD81AF70181917F010E94B6
:100E6000C505EC14FD04C1F78FEF0E94C5058FEF97
:100E70000E94C5050E94CC058A878F71853071F468
:100E8000011116C0CE010E94BA0581E0DF91CF9119
:100E90000F91FF90EF90DF90CF90089581E18D83C7
:100EA000CE010E94BA05CE010E94BA0580E0EECFC5
:100EB00088E592E00E94CF05811102C085E1C4CF90
:100EC00020E030E0A9016DE0CE010E9403068823F6
:100ED00011F084E1B9CF0E94CC058111FACFD2CFB5
:100EE0000F934091AF015091B0016091B1017091A9
:100EF000B201411551056105710599F0082F2AE8E5
:100F000032E080918A0490918B040E94020788232A
:100F100049F01092AF011092B0011092B1011092FD
:100F2000B20181E00F9108950F93CF93C82F809164
:100F3000AE01811105C0C1E08C2FCF910F910895B2
:100F400040910001509101016091020170910301F3
:100F50000C2F2AE832E080918A0490918B040E9441
:100F60000207811102C0C0E0E7CFCC2321F381E06A
:100F70000E9470078823B9F31092AE01DDCF8F92E3
:100F80009F92AF92BF92EF92FF920F931F93CF93D6
:100F90004B015C01C42F8091000190910101A0914F
:100FA0000201B091030188159905AA05BB0551F10D
:100FB00081E00E94940781110BC080E0CF911F91C6
:100FC0000F91FF90EF90BF90AF909F908F900895FA
:100FD0008AE8E82E82E0F82E00E012E030E020E01F
:100FE000B501A40180918A0490918B040E9460064F
:100FF000882319F38092000190920101A0920201CE
:10100000B09203014091AE014C2B4093AE0181E0C0
:10101000D5CF8F929F92AF92BF92CF92DF92EF92F5
:10102000FF92CF932BE235E030938B0420938A0418
:10103000882309F46DC040E060E070E0CB010E94BD
:10104000BF0781110BC080E0CF91FF90EF90DF9040
:10105000CF90BF90AF909F908F900895809148045B
:101060008F7789F78091540490915504A09156048C
:10107000B091570484369105A105B10520F3C090C5
:101080005004D0905104E0905204F0905304C114E5
:10109000D104E104F104B9F240E0C701B6010E94B5
:1010A000BF07882381F28091950290919602811565
:1010B000924049F6A0919A02AA2329F260919802DF
:1010C000709199026115710509F4BDCF20919702C5
:1010D000222309F4B8CFA093490520933B0590E063
:1010E00080E030E0E1E0F0E0C82FAF01082E02C060
:1010F000440F551F0A94E2F72417350769F041E0C1
:10110000480F01968930910579F7409344059BCFAC
:10111000C12CD12C7601C0CF809344052091A00230
:101120003091A10250E040E02115310541F42091B9
:10113000AE023091AF024091B0025091B1022093C3
:101140003C0530933D0540933E0550933F054601D5
:101150005701860E971EA11CB11C80924A059092E1
:101160004B05A0924C05B0924D05E0919B02F09189
:101170009C02F0935005E0934F05B0E00E941D20C3
:10118000DC01CB01880D991DAA1DBB1D8093510563
:1011900090935205A0935305B093540525E0EE0FAC
:1011A000FF1F2A95E1F7E150FE4FEF2FFF27E6954D
:1011B0008E0F9F1FA11DB11D80934505909346057D
:1011C000A0934705B093480580909D0290909E02A1
:1011D000B12CA12C8114910441F48090AA0290902A
:1011E000AB02A090AC02B090AD02C81AD90AEA0ACC
:1011F000FB0AC80CD91CEA1CFB1C04C0F694E7943B
:10120000D794C794CA95D2F7C0924005D0924105B1
:10121000E0924205F092430585EFC8168FE0D806AC
:10122000E104F10428F48CE080934E0581E00CCFBA
:1012300080E125EFC2162FEFD206E104F104A0F3FE
:101240008091B6029091B702A091B802B091B90214
:101250008093510590935205A0935305B093540584
:1012600080E2E2CF4F925F926F927F928F929F9235
:10127000AF92BF92CF92DF92EF92FF920F931F93A4
:10128000CF93DF93EC01423051056105710590F475
:1012900080E0DF91CF911F910F91FF90EF90DF9051
:1012A000CF90BF90AF909F908F907F906F905F9006
:1012B0004F90089589859A85AB85BC850196A11DBF
:1012C000B11D84179507A607B70710F3CB88DC88F4
:1012D000ED88FE888F89803109F042C0BB27A72F97
:1012E000962F852F480159012A013B01C80ED91EAE
:1012F000EA1EFB1E8091000190910101A091020164
:10130000B0910301C816D906EA06FB0699F58F8944
:101310008031C1F5B301A201552766277727440F15
:10132000551F46575D4FFA01918280828091AE0130
:1013300081608093AE018A89823080F08D819E81A8
:10134000AF81B8858C0D9D1DAE1DBF1D8093AF0173
:101350009093B001A093B101B093B20181E099CF15
:10136000DB01CA01E7E0B695A79597958795EA95C1
:10137000D1F7B8CF40E0C701B6010E94BF07811185
:10138000C6CF86CFB301A2014F77552766277727AF
:10139000440F551F440F551F46575D4FFA01808279
:1013A0009182A282B382C2CF8F929F92AF92BF925C
:1013B000CF92DF92EF92FF920F931F93CF93DF9321
:1013C000FC0181859285A385B4850196A11DB11D7F
:1013D00084179507A607B70770F480E0DF91CF91D7
:1013E0001F910F91FF90EF90DF90CF90BF90AF9043
:1013F0009F908F90089583889488A588B688878960
:10140000803189F5BB27A72F962F852FE9016A0127
:101410007B018F01BC01CD01680D791D8A1D9B1DCB
:101420008090000190900101A0900201B090030112
:1014300086169706A806B90601F5F8018789803156
:1014400011F5DD24EE24FF24F601EE0FFF1FE65711
:10145000FD4F80819181B0E0A0E088839983AA83C9
:10146000BB8381E0BBCFDB01CA01C7E0B695A7957E
:1014700097958795CA95D1F7C9CF40E00E94BF07DD
:101480008111DBCFAACFE894C7F8DD24EE24FF2436
:10149000F601EE0FFF1FEE0FFF1FE657FD4F808195
:1014A0009181A281B381BF70D8CF4F925F926F922A
:1014B0007F92AF92BF92CF92DF92EF92FF920F9303
:1014C0001F93CF93DF9300D000D0CDB7DEB78C0150
:1014D00049835A836B837C835901C12CD12C7601BB
:1014E000412C82E0582E612C712C49815A816B81EC
:1014F0007C819E012F5F3F4FC8010E94D409882341
:1015000039F1F8018585A301920104C0220F331F30
:10151000441F551F8A95D2F7DA01C901C80ED91E9A
:10152000EA1EFB1E49815A816B817C81878980314B
:1015300011F188EF9FEFAFEFBFE0481759076A0737
:101540007B0798F2F501C082D182E282F38281E0CA
:101550000F900F900F900F90DF91CF911F910F91EF
:10156000FF90EF90DF90CF90BF90AF907F906F9003
:101570005F904F90089588EF9FEFA0E0B0E0DDCF3F
:10158000CF93DF93FC012581222321F080E0DF91BE
:10159000CF910895EC0180914E05803159F582E09C
:1015A0008583178A108E118E128E80914F0590912F
:1015B0005005B0E0A0E025E0880F991FAA1FBB1FCF
:1015C0002A95D1F7838B948BA58BB68B87E395E017
:1015D0009C8F8B8F81E08C831E821F8218861986D8
:1015E0001A861B861C861D861E861F86188A198AE7
:1015F0001A8ACDCF803251F683E085834091510520
:10160000509152056091530570915405478B508F4E
:10161000618F728F9F012D5E3F4F87E395E00E949F
:10162000550A8111D3CFB2CF8F929F92AF92BF92C2
:10163000CF92DF92EF92FF920F931F93CF93DF939E
:10164000EC018D8181110EC080E0DF91CF911F915F
:101650000F91FF90EF90DF90CF90BF90AF909F9051
:101660008F9008950B891C892D893E8904171507D1
:101670002607370748F34A015B01823031F48A8636
:101680009B86AC86BD8681E0E0CF81149104A104E5
:10169000B10449F41E821F82188619861A861B8699
:1016A0001C861D86F0CF0A851B852C853D85EB8D1C
:1016B000FC8D858590E00996B901A801415051093A
:1016C00061097109082E04C076956795579547956D
:1016D0000A94D2F775016401E1E0CE1AD108E1085D
:1016E000F10804C0F694E794D794C7948A95D2F78A
:1016F000C416D506E606F70620F0012B022B032BB5
:1017000011F58F89988DA98DBA8D8E839F83A887B7
:10171000B9878E010A5F1F4FC114D104E104F1049F
:1017200009F4ADCF4E815F816885798598018B8DF5
:101730009C8D0E94D40991E0C91AD108E108F108F2
:101740008111EACF81CFC41AD50AE60AF70AE1CFA0
:101750003F924F925F926F927F928F929F92AF9241
:10176000BF92CF92DF92EF92FF920F931F93CF938E
:10177000DF93CDB7DEB72C970FB6F894DEBF0FBE60
:10178000CDBF5C01DC015B968D909C905C971696BA
:101790004D905D906D907C901997411451046104B7
:1017A000710409F468C0BFEF4B1A5B0A6B0A7B0A2D
:1017B000312CF40181859285A385B4859C01AD010E
:1017C0002F5F3F4F4F4F5F4F29873A874B875C878B
:1017D000730162011D821E821F821886F4018185B9
:1017E0009285A385B4852D813E814F815885281728
:1017F00039074A075B0708F056C089859A85AB858B
:10180000BC858C159D05AE05BF0550F482E0C82E41
:10181000D12CE12CF12C92E0492E512C612C712C11
:101820009E012F5F3F4FB701A601C4010E94D4095A
:101830008823C9F189819A81AB81BC81892B8A2B4C
:101840008B2B09F1260137019FEF491A590A690AC2
:10185000790A2D813E814F8158852F5F3F4F4F4F31
:101860005F4F2D833E834F8358873FEFC31AD30AC0
:10187000E30AF30AB3CFF4014080518062807380A1
:101880003324339496CFC414D504E604F70409F73F
:101890000FEF1FEF2FEF3FE0B701A601C4010E9439
:1018A0003209811119C080E02C960FB6F894DEBF82
:1018B0000FBECDBFDF91CF911F910F91FF90EF90A1
:1018C000DF90CF90BF90AF909F908F907F906F9060
:1018D0005F904F903F900895D50116964D915D9180
:1018E0006D917C911997411551056105710539F08C
:1018F00097018601C4010E9432098823A1F2D50113
:101900001696CD92DD92ED92FC921997332051F00C
:10191000D701C6010196A11DB11DF40180839183F9
:10192000A283B383F5018789908DA18DB28D892B18
:101930008A2B8B2B39F48481C78AD08EE18EF28E6C
:1019400080688483F50184818062848381E0ACCFE8
:101950001F93CF93DF93FC0125812223D1F1162F12
:10196000EC01848187FF2AC066857785808991890B
:1019700041E00E94BF07882361F1EA8980E2E89F85
:10198000F0011124E657FD4F309719F18D81823017
:1019900040F48B899C89AD89BE89848F958FA68FF1
:1019A000B78F8F89988D938F828F8F89988DA98D0E
:1019B000BA8DB58BA48B8C818F778C83111103C06A
:1019C0008C818F7E8C83812FDF91CF911F910C941E
:1019D000940780E0DF91CF911F910895FF920F93BC
:1019E0001F93CF93DF93EC018D81813041F090E024
:1019F00080E0DF91CF911F910F91FF9008958C812E
:101A000081FFF5CF82FD1BC000918A0410918B04E9
:101A1000C8010E94ED050E94CC05F82EC8010E9465
:101A2000BA058FEFF812E3CF8C8185FF1BC060E011
:101A3000CE010E94A80C8C818F7D8C83D8CF4B89DE
:101A40005C896D897E898A859B85AC85BD85841777
:101A50009507A607B707C1F2CE010E94140B8111AA
:101A6000D3CFC5CF4091AF015091B0016091B1018A
:101A70007091B201452B462B472B21F080E00E944C
:101A80007007B5CF80618C832A853B85317080E0FB
:101A900092E0821B930BADCFCF93DF93EC0161E01B
:101AA0000E94A80C882311F01D8281E0DF91CF9164
:101AB00008952F923F924F925F926F927F928F92F2
:101AC0009F92AF92BF92CF92DF92EF92FF920F93CD
:101AD0001F93CF93DF9300D000D01F92CDB7DEB716
:101AE0007C015B01342E5D83DC0115968C9115978A
:101AF000813009F0CEC014962C9021FECAC022FC81
:101B0000B4C0C32CDD8022947FE027222094B22D24
:101B1000B1702B2ED7011A964D915D916D917C91EC
:101B20001D97C114D10409F428C15B968D919C9135
:101B30005C97FC0174807A948A019B0169E0369578
:101B40002795179507956A95D1F770228A0111702C
:101B5000711020C001151105E9F416964D915D91A3
:101B60006D917C911997411551056105710509F039
:101B700099C057968D919D910D90BC91A02D009785
:101B8000A105B10509F0B0C0C7010E94A80B8823C8
:101B900009F47FC080E092E0801B910B46018C1518
:101BA0009D0508F44C01D7015B964D915C915C97C3
:101BB00016968D919D910D90BC91A02D0297A10933
:101BC000B109FA01258504C0880F991FAA1FBB1F00
:101BD0002A95D2F74685578560897189840F951FAC
:101BE000A61FB71F9C01AD01270D311D411D511DC1
:101BF00029013A01811432E0930609F07BC08091FB
:101C0000000190910101A0910201B091030184159E
:101C10009505A605B70559F48FEF9FEFDC0180937A
:101C2000000190930101A0930201B0930301022DE2
:101C30009501B301A20180918A0490918B040E94C6
:101C40000207882331F19EEFB91AC818D908F701A5
:101C500082859385A485B585880D991DA11DB11D2B
:101C600082879387A487B58755CFF7014389548925
:101C70006589768982859385A485B5854817590736
:101C80006A077B0709F43DCFC7010E94140B81113D
:101C900038CF81E090E0D70113969C938E931297F2
:101CA00080E007C09E012F5F3F4F0E94D409811141
:101CB00002C090E079C089819A81AB81BC81F70133
:101CC000238D348DF901278948EF5FEF60E070E0E4
:101CD000203121F048EF5FEF6FEF7FE08417950729
:101CE000A607B70708F050CFF70186839783A08730
:101CF000B18750CF0115110599F5D7011A964D916D
:101D00005D916D917C911D9753968D919D910D9054
:101D1000BC91A02D481759076A077B0708F181E09D
:101D20000E949407882309F4B4CF40920001509296
:101D3000010160920201709203018091AE01816005
:101D40008093AE01C80186579D4FD5019C01280D97
:101D5000391DFC012E173F0759F04D914193FACFE1
:101D600041E0C301B2010E94BF078111EBCF91CFC7
:101D7000281B390BA20EB31E68CFF7018389948903
:101D8000A589B68984179507A607B70738F4848113
:101D9000438B548B658B768B80688483F7018481B9
:101DA00083FD1AC0832D9D810F900F900F900F908F
:101DB0000F90DF91CF911F910F91FF90EF90DF90E7
:101DC000CF90BF90AF909F908F907F906F905F90DB
:101DD0004F903F902F90089561E0C7010E94A80C9A
:101DE000882309F456CFDECFCF93DF931F92CDB770
:101DF000DEB7698341E050E0BE016F5F7F4F0E9414
:101E0000590D0F90DF91CF910895FC01DB011296DF
:101E10008D919C9113979383828388E491E09183C1
:101E2000808314968C911497848315968C911597C2
:101E3000858316964D915D916D917C91199746839E
:101E40005783608771871A964D915D916D917C9152
:101E50001D9742875387648775871E964D915D91C4
:101E60006D917C91519746875787608B718B529605
:101E70008C915297828B53964D915D916D917C918F
:101E80005697438B548B658B768B57964D915D910E
:101E90006D917C915A97478B508F618F728F5B96B3
:101EA0008D919C91948F838F08950895FC01818D6D
:101EB000928D009719F061E00C94A80C0895DC0154
:101EC0005996ED91FC913097B9F083899489A58951
:101ED000B6894285538564857585841B950BA60B51
:101EE000B70B811520E89207A105B10538F08FEFF7
:101EF0009FE7A0E0B0E0089590E080E00895DC0165
:101F000059968D919C91009739F0DC01ED91FC91EF
:101F10000480F581E02D099490E080E00895CF934E
:101F2000DF93EC01E98DFA8D309749F481E090E080
:101F30009B838A8390E080E0DF91CF9108951382A4
:101F40001282898D9A8D0E94590DE98DFA8D228118
:101F50003381232B59F7F0CFFB01448155816081F8
:101F600071810C948F0FCF93DF931F92CDB7DEB7A3
:101F70006983DC01ED91FC910280F381E02D41E069
:101F800050E0BE016F5F7F4F09950F90DF91CF91B9
:101F900008952F923F924F925F926F927F928F920D
:101FA0009F92AF92BF92CF92DF92EF92FF920F93E8
:101FB0001F93CF93DF9300D01F92CDB7DEB7FC0104
:101FC0008581811118C08FEF9FEF0F900F900F90B8
:101FD000DF91CF911F910F91FF90EF90DF90CF9005
:101FE000BF90AF909F908F907F906F905F904F9039
:101FF0003F902F900895848180FFE5CF43895489D5
:102000006589768982859385A485B585312C212CB7
:10201000481759076A077B0719F022242394312CAB
:102020006F012101CE0101963C01DF011696BB83B1
:10203000AA834114510409F4C5C0F60142855385B1
:10204000648575854A01F1E09F22D6015B968D91EA
:102050009C915C978A019B01E9E03695279517953D
:102060000795EA95D1F71596EC91E230E9F5FC0178
:10207000628D738D848D958D600F711F821F931FEC
:10208000A12C22E0B22EA818B9084A145B0408F467
:102090005201F601248126FD04C0A114F2E0BF061E
:1020A00071F4009100011091010120910201309121
:1020B0000301061717072807390709F05EC040E03B
:1020C0000E94BF07882309F47ECFC40186579D4F25
:1020D000D3019C012A0D3B1DFC012E173F0709F47B
:1020E0006CC041914D93F9CFDC011496BC90BA9429
:1020F000B0228114910479F4B1100DC0452B462B08
:10210000472B69F5F6018789908DA18DB28D868365
:102110009783A087B187D6015B96ED91FC915C9780
:1021200016966D917D918D919C91199762507109D0
:1021300081099109258504C0660F771F881F991FA3
:102140002A95D2F70685178520893189600F711F7E
:10215000821F931F6B0D711D811D911D91CFD601A3
:1021600016964D915D916D917C9119972A813B81D5
:102170000E94D4098111CFCF26CF7301850194012C
:10218000AB01BC0180918A0490918B040E9460068F
:10219000882309F418CF6A0C7B1CF601828593858D
:1021A000A485B5858A0D9B1DA11DB11D82879387CE
:1021B000A487B5874A185B083CCF281B390B620EF1
:1021C000731EEBCF2A94232809F0FDCE898190E07D
:1021D000FCCEFC01818D928D009711F00C94C90FFB
:1021E0008FEF9FEF08950F931F93CF93DF93EC0131
:1021F000898D9A8D10E000E0009799F00E94C90F38
:102200008C010F3F100769F0898D9A8DFC01428582
:1022100053856485758541505109610971090E9492
:10222000140BC801DF91CF911F910F91089560E0C9
:1022300084E00C94CD014F925F926F927F92BF9297
:10224000CF92DF92EF92FF920F931F93CF93DF9382
:102250008C01D62F80918E0590918F0521E02093DF
:10226000660228E620938802109267021092890283
:10227000DC01ED91FC910190F081E02D60E0099589
:1022800081E00E943B04C82FF12CE12C8111D7C0C2
:102290000E942C026B017C0180916002811164C05C
:1022A000BD2E81E08093600280935F029FEF909348
:1022B0005E0210925D029D0F90935C0280933B0240
:1022C00080913B02806D80933B0280913A02813085
:1022D00009F091C010923A020E942C026B017C011D
:1022E00080913B028093BB008091620290916302D7
:1022F000A0916402B0916502892B8A2B8B2BA1F0EF
:102300000E942C024090620250906302609064022E
:10231000709065026C197D098E099F094616570653
:102320006806790608F441C08091BC0083FDD8CFCF
:1023300085EC8093BC000E942C026B017C01809193
:102340006002813009F459C080915D028D1710F44C
:10235000B0905D02ACE3B2E0EAE1F2E0CB1549F106
:102360008D918193CF5FFACF809162029091630249
:10237000A0916402B0916502892B8A2B8B2B09F402
:102380008BCF0E942C0240906202509063026090BA
:102390006402709065026C197D098E099F094616CA
:1023A00057066806790608F077CF809161020E948F
:1023B0001A0410921902C0931802E8017E01E01A73
:1023C000F10A80918E0590918F05DC01ED91FC91D1
:1023D0000084F185E02D0995892B89F180918E0586
:1023E00090918F05DC01ED91FC910284F385E02D45
:1023F00009958993E3CF85EE9CCF809162029091FD
:102400006302A0916402B0916502892B8A2B8B2B09
:1024100009F495CF0E942C02409062025090630212
:1024200060906402709065026C197D098E099F09A5
:10243000461657066806790608F081CFB6CFC70161
:10244000DF91CF911F910F91FF90EF90DF90CF9090
:10245000BF907F906F905F904F900895CF92DF92E2
:10246000EF92FF921F93CF93DF93EC0180E2689F7E
:10247000F0011124E657FD4F9385917161F0842F8F
:10248000827449F080E0DF91CF911F91FF90EF902F
:10249000DF90CF900895142F6A8B80910001909166
:1024A0000101A0910201B09103018E879F87A88B43
:1024B000B98BC488D588F12CE12C7601DD24CC249D
:1024C000CF8AD88EE98EFA8E828D938DB0E0A0E00F
:1024D000AC01BD014C295D296E297F294F8B588F96
:1024E000698F7A8F83858871B1F4848D958DA68DDF
:1024F000B78D8B8B9C8BAD8BBE8B81E08D831F70DA
:102500001C831E821F82188619861A861B861C86CB
:102510001D8681E0B8CF803109F0B4CF9E012D5ED9
:102520003F4F8B8D9C8D0E94550A882309F4AACFBA
:1025300084E0E4CFFC0180819181009711F00C943C
:102540004A220895FB0101900020E9F73197AF017D
:10255000461B570BDC01ED91FC910280F381E02DCD
:102560000994CF93DF930E949A03EC0160E571E038
:102570008CE894E00E94A2128C0F9D1FDF91CF91F6
:1025800008958F929F92AF92BF92EF92FF920F9316
:102590001F93CF93DF93CDB7DEB7A1970FB6F89413
:1025A000DEBF0FBECDBF7C01FA01CB0119A22230E4
:1025B00008F42AE08E010F5D1F4F822E912CB12C62
:1025C000A12CBF01A50194010E948621F901CA0135
:1025D0006A300CF5605DD8016E938D01232B242B9E
:1025E000252B79F790E080E0109721F0BD01C7011D
:1025F0000E94A212A1960FB6F894DEBF0FBECDBF07
:10260000DF91CF911F910F91FF90EF90BF90AF900E
:102610009F908F900895695CDECF2F923F924F92EA
:102620005F926F927F928F929F92AF92BF92CF9262
:10263000DF92EF92FF921F93CF93DF93EC016A0139
:102640007B01722EAB019601CB01B6010E94812164
:1026500063E571E0811126C046015701E894B7F89F
:102660002FEF3FEF4FE75FE7C501B4010E948121E3
:1026700081110CC02FEF3FEF4FE75FE7C501B401B9
:102680000E94F91E67E571E0181664F02FEF3FEF26
:102690004FE75FE4C701B6010E947C211816B4F42D
:1026A0006BE571E0CE01DF91CF911F91FF90EF902C
:1026B000DF90CF90BF90AF909F908F907F906F9062
:1026C0005F904F903F902F900C94A2122FEF3FEF0E
:1026D0004FE75FECC701B6010E94F91E87FDE0CF0E
:1026E00020E030E0A901C701B6010E94F91E312C9B
:1026F000212C87FF09C06DE2CE010E94A6021C01B9
:10270000F7FAF094F7F8F09410E060E070E080E001
:102710009FE3711641F020E030E040E251E40E9476
:10272000DB201F5FF6CFA70196010E946F202B01CF
:102730003C010E944D214B015C012AE0BC01A40137
:10274000CE010E94C1127C01E20CF31C1123C1F1E5
:10275000C501B4010E94FE1E9B01AC01C301B20180
:102760000E946E204B015C016EE2CE010E94A60227
:10277000E80EF91E115020F120E030E040E251E473
:10278000C501B4010E945F1F2B013C010E944D2135
:102790004B01B12CA12C2AE0B501A401CE010E946D
:1027A000C112E80EF91EC501B4010E94FE1E9B0174
:1027B000AC01C301B2010E946E204B015C01DACF73
:1027C000C701DF91CF911F91FF90EF90DF90CF90E5
:1027D000BF90AF909F908F907F906F905F904F9041
:1027E0003F902F900895EF92FF920F931F93CF93F6
:1027F000DF93EC017B01198218821B821A821D82F1
:102800001C82FB0101900020E9F731978F01061B24
:10281000170BB8016F5F7F4F90E080E00E94D322DA
:102820000097B9F0998388831B830A832C813D81AB
:10283000232B11F4FC0110821D830C83B7018881C6
:102840009981DF91CF911F910F91FF90EF900C94A0
:10285000B12388819981009711F00E944A22198240
:1028600018821D821C821B821A82DF91CF911F91D8
:102870000F91FF90EF90089585ED8093BC008091BB
:10288000620290916302A0916402B0916502079682
:10289000A11DB11D23E0B695A795979587952A951B
:1028A000D1F72091BC0024FD03C01092600208956E
:1028B00040916202509163026091640270916502DE
:1028C000452B462B472B69F30097A105B10541F035
:1028D0002AE22A95F1F700C00197A109B109E1CFD9
:1028E000809161020C941A043F924F925F926F9212
:1028F0007F928F929F92AF92BF92CF92DF92EF9290
:10290000FF920F931F93CF93DF93CDB7DEB72B9733
:102910000FB6F894DEBF0FBECDBF7C01FE0131962D
:10292000CE010C966F0130E23193E817F907E1F719
:10293000DA0130E087E09D91B92E992309F43CC07B
:102940009E32F1F48A30C9F480E02B960FB6F894E9
:10295000DEBF0FBECDBFDF91CF911F910F91FF90D2
:10296000EF90DF90CF90BF90AF909F908F907F902F
:102970006F905F904F903F90089538E08AE0DBCFF2
:10298000E8E6F0E04491442321F031969413FACF25
:10299000DBCF8317C8F24FED490F4E35A8F64FE94C
:1029A000490F4A3118F440EEB42EB90EF601E30F88
:1029B000F11DB0823F5FBFCF8981803229F2322E74
:1029C0008B01DB015B968D919C915C97F701948F55
:1029D000838F16961D921D921D921C921997FB01D2
:1029E0001286138614861586F80182859385A48540
:1029F000B585438954896589768984179507A60723
:102A0000B70708F04DC025E0B695A795979587952F
:102A10002A95D1F7F82FFF70AF2ED80115968C911B
:102A2000823008F491CFC8010E94C90F97FD8CCF66
:102A3000F80182859385A485B5854F96A11DB11DAA
:102A400082879387A487B587F0E2AF9EB0011124F7
:102A500066577D4F6115710509F476CFDB018C91C6
:102A6000882341F0853E09F062C0BB2029F0BB24D9
:102A7000B394BACFB1100EC0F701A28A80910001C1
:102A800090910101A0910201B0910301868797877F
:102A9000A08BB18BDB018C918111E9CFBB24B39466
:102AA000832D8271823109F04FCFBB2009F44DC0D4
:102AB000F701668577858089918941E00E94BF078B
:102AC000882309F441CFD70152968C91B0E28B9FB5
:102AD000C001112486579D4F009709F435CFFC01A2
:102AE0003A9626E1DF011D922A95E9F72BE0F601DF
:102AF000DC0101900D922A95E1F721E238E2FC0118
:102B0000318B208B40E058E057874687338B228BF0
:102B1000318F208F578B468B81E00E94940788234A
:102B200009F412CF432DD70152966C910AC04BE0A5
:102B300050E0C6010E949023892B09F055CF432D08
:102B40006A2DC7010E942E1200CFF80185818230C4
:102B500009F4FACEC8010E94A80B882309F4F4CE28
:102B6000D8015B96ED91FC915C9716968D909D90A7
:102B7000AD90BC901997B2E08B1A9108A108B108EA
:102B8000858504C0880C991CAA1CBB1C8A95D2F7A9
:102B900086859785A089B189880E991EAA1EBB1EBD
:102BA000848124013501480E511C611C711C841460
:102BB0009504A604B70409F1E1E04E1A5108610832
:102BC000710881E00E949407882309F4BDCEEAE8E9
:102BD000F2E011928AE894E08E179F07D1F74092B5
:102BE00000015092010160920201709203018091F4
:102BF000AE0181608093AE01DACFD8015B96ED9192
:102C0000FC91258580E092E0A0E0B0E004C0880F50
:102C1000991FAA1FBB1F2A95D2F7F801438954892F
:102C200065897689840F951FA61FB71F838B948BA8
:102C3000A58BB68BD70152961C928AE892E04FCFB3
:102C4000EF92FF920F931F93CF93DF93EC017B01E1
:102C50008A011B821A8288EE93E0A0E0B0E08C83A8
:102C60009D83AE83BF8382E191E0998388838DE168
:102C700090E00E94AE219A8F898F009779F02DE124
:102C8000F701DC0101900D922A95E1F74CE050E04C
:102C9000B801CE010C960E94B823188EDF91CF9117
:102CA0001F910F91FF90EF9008952F923F924F92B6
:102CB0005F926F927F928F929F92AF92BF92CF92CC
:102CC000DF92EF92FF920F931F93CF93DF93CDB7D5
:102CD000DEB7C857D1090FB6F894DEBF0FBECDBF1F
:102CE000E5969FAF8EAFE597E7967FAF6EAFE7971C
:102CF00049015A0127013801E996DFAECEAEE997C6
:102D000019A218A288E491E09F8F8E8F1BA21C82CB
:102D10001B829A8389831E828E01025E1F4FC80127
:102D20000E94C00ACE0101966C0178010FE511E006
:102D30006FE270E0C8010E94A623009709F45FC00B
:102D4000F80120812F3269F40F5F1F4F9C2D8D2DCC
:102D50006701E92EF82E9E2D8F2D7601C92ED82ED3
:102D6000E7CF801B8D3008F08CE0282E312CA1019C
:102D7000B801CE01885A9F4F0E94B823E8E5F0E0E1
:102D8000EC0FFD1FE20DF31D1082C6010E944C0DD9
:102D9000F6018581882319F11EAE1DAE88E491E00D
:102DA0009CAF8BAF21961FAE219710E000E0015A37
:102DB0001E4FF801808181112AC0BE01655C7F4FE2
:102DC000CE0101960E94050F4DE651E0BE016F5FF6
:102DD0007F4FCE01885A9F4F0E9420163FC021E0AE
:102DE000AE01485A5F4FB701C6010E947414882390
:102DF00099F2020D131DC7010E944C0DACCF0F5567
:102E00001140B701CE01CB960E94050FD0CF19A279
:102E100018A288E491E09F8F8E8F1BA221968FAD20
:102E20002197811198C06C961FAE1EAE6C9788EEEC
:102E300093E0A0E0B0E0A0968CAF9DAFAEAFBFAF87
:102E4000A09782E191E06A969FAF8EAF6A97E39672
:102E50001FAE1EAEE397A5961FAEA597E396EEAD07
:102E6000FFADE397309709F497C08581882309F473
:102E700093C0E5966EAD7FADE597CE01885A9F4F22
:102E80000E94AC0F6CE2CE01885A9F4F0E94A602AE
:102E9000E7966EAD7FADE797CE01885A9F4F0E94AF
:102EA000AC0F6CE2CE01885A9F4F0E94A6022AE026
:102EB000B501A401CE01885A9F4F0E94C1126CE255
:102EC000CE01885A9F4F0E94A602C501B4010E94FC
:102ED000FE1E20E030E046E153E40E94DB20AB011F
:102EE000BC0123E0CE01885A9F4F0E940D136CE273
:102EF000CE01885A9F4F0E94A60222E0B301A20190
:102F0000CE01885A9F4F0E940D136CE2CE01885A61
:102F10009F4F0E94A602E9966EAD7FADE997CE0164
:102F2000885A9F4F0E94AC0F60E571E0CE01885A2D
:102F30009F4F0E94A212E3968EAD9FADE39700973C
:102F400041F00E944C0DE3968EAD9FADE3970E9439
:102F50004A2281E022C027E1A801BE01655C7F4FC3
:102F6000CE014E960E947414882309F45CCFCE01E2
:102F7000CB960E944C0D49A95AA96BA97CA9CE01F8
:102F80004E960E94140BBE01625E7F4FCE010196E9
:102F90000E94050FA8011ACF80E0C858DF4F0FB676
:102FA000F894DEBF0FBECDBFDF91CF911F910F917F
:102FB000FF90EF90DF90CF90BF90AF909F908F9059
:102FC0007F906F905F904F903F902F900895EF9279
:102FD000FF920F931F93CF93DF93CDB7DEB7A697E2
:102FE0000FB6F894DEBF0FBECDBF8C018091FC01FF
:102FF000811113C06FE671E0C8010E94F313C8018C
:10300000A6960FB6F894DEBF0FBECDBFDF91CF916D
:103010001F910F91FF90EF9008957E0189E1E80ED6
:10302000F11C8EE0F70111928A95E9F767E070E0F4
:1030300080E895E00E941B11A0E8B5E0F70147E8A1
:1030400055E08D9116962C9116972823822F90E0AB
:1030500034E0959587953A95E1F7982F990F990F58
:10306000891B880F820F90E0819391934A175B0729
:1030700041F78A8D8F93898D8F938C8D8F938B8D54
:103080008F938E8D8F938D8D8F938AA18F9389A12E
:103090008F938CA18F938BA18F938DA19EA1805331
:1030A000984F9F938F9383E891E09F938F931F9204
:1030B00088E18F93CE0101967C019F938F930E94AC
:1030C000C723B701C8010E94F3130FB6F894DEBFFF
:1030D0000FBECDBF94CF1F920F920FB60F92112447
:1030E0002F933F938F939F93AF93BF938091100241
:1030F00090911102A0911202B091130230910F022F
:1031000023E0230F2D3758F50196A11DB11D209303
:103110000F028093100290931102A0931202B093B9
:1031200013028091140290911502A0911602B091A1
:1031300017020196A11DB11D8093140290931502F0
:10314000A0931602B0931702BF91AF919F918F91F8
:103150003F912F910F900FBE0F901F90189526E86A
:10316000230F0296A11DB11DD2CF1F920F920FB651
:103170000F9211242F933F934F935F936F937F93FD
:103180008F939F93AF93BF93EF93FF93E0910601CB
:10319000F09107010995FF91EF91BF91AF919F9138
:1031A0008F917F916F915F914F913F912F910F90F0
:1031B0000FBE0F901F9018951F920F920FB60F928F
:1031C00011242F933F934F935F936F937F938F932C
:1031D0009F93AF93BF93EF93FF93E0910401F0911E
:1031E00005010995FF91EF91BF91AF919F918F914B
:1031F0007F916F915F914F913F912F910F900FBEF3
:103200000F901F9018951F920F920FB60F921124D6
:103210002F933F934F935F936F937F938F939F93DE
:10322000AF93BF93EF93FF938CE894E00E942B033E
:10323000FF91EF91BF91AF919F918F917F916F918E
:103240005F914F913F912F910F900FBE0F901F9064
:1032500018951F920F920FB60F9211242F938F93F0
:103260009F93EF93FF93E0919C04F0919D048081E4
:10327000E091A204F091A30482FD1BC09081809193
:10328000A5048F5F8F732091A604821741F0E0910F
:10329000A504F0E0E457FB4F958F8093A504FF91C0
:1032A000EF919F918F912F910F900FBE0F901F90D4
:1032B00018958081F4CF1F920F920FB60F921124B0
:1032C0002F933F934F935F936F937F938F939F932E
:1032D000AF93BF93EF93FF938091B900887F8036BF
:1032E00009F44AC0F0F5883209F4A7C018F5803116
:1032F00009F49BC0B8F4882309F4F9C0883009F4B4
:1033000094C0FF91EF91BF91AF919F918F917F9169
:103310006F915F914F913F912F910F900FBE0F9042
:103320001F901895883109F488C0803251F7809336
:103330005E0214C0803409F49DC040F48033B9F3B8
:103340008833F9F680935E0285ECB0C0803509F4CD
:1033500085C0883509F496C0883499F60E943C14DB
:10336000D0CF883909F48CC038F5883729F050F46B
:10337000883611F0803729F683E08093600210923E
:10338000F60157C0883809F47BC0803919F08038BD
:1033900009F0B7CF8091F601803208F071C0E0915A
:1033A000F60181E08E0F8093F6018091BB00F0E082
:1033B000EA52FE4F80833DC0803B39F0E0F4803A12
:1033C00009F479C0883A09F09CCF84E080936002C8
:1033D0001092D5011092D401E091F901F091FA0117
:1033E00009958091D40181110FC081E08093D401AF
:1033F0001092B40109C0803C09F4A6CF883C09F4BE
:10340000A3CF883B09F07DCFE091D50181E08E0FFD
:103410008093D501F0E0EC54FE4F80818093BB0097
:103420009091D5018091D40129C080913B02809375
:10343000BB0085EC8093BC0064CF90915D028091CD
:103440005C02981758F5E0915D0281E08E0F809341
:103450005D02F0E0E45CFD4F8081E9CFE0915D0228
:1034600081E08E0F80935D028091BB00F0E0E45C10
:10347000FD4F808390915D0280915C029817C8F2A5
:1034800085E8D8CFE0915D0281E08E0F80935D02E8
:103490008091BB00F0E0E45CFD4F808380915F028F
:1034A00081115CCF81E080933A0284EA8093BC0072
:1034B0001092600226CF85EC8093BC0010926002CF
:1034C0008091F601803230F4E091F601F0E0EA52AA
:1034D000FE4F10826091F60170E0E091F701F091EB
:1034E000F80186ED91E009951092F6010ACF10924D
:1034F0005E0234CFECE8F4E01382128248EE53E02F
:1035000060E070E0448355836683778384E291E0D2
:103510009183808385EC90E09587848784EC90E0AC
:103520009787868780EC90E0918B808B81EC90E090
:10353000938B828B82EC90E0958B848B86EC90E071
:10354000978B868B118E128E138E148EA4E7B5E0A6
:1035500013961C921E92129714964D935D936D9341
:103560007C93179786E391E011969C938E93E9E202
:10357000F5E080E580831182EBE2F5E015821682AA
:103580001186138642E050E060E070E04487558782
:103590006687778713A215A614A628E431E033A71F
:1035A00022A717A6E0E8F5E098E6908B818BB78715
:1035B000A6878FE7878380878FE3818797E092874D
:1035C00083878FE184878FEF85870895CF93DF937B
:1035D000CDB7DEB762970FB6F894DEBF0FBECDBF92
:1035E000789484B5826084BD84B5816084BD85B5DE
:1035F000826085BD85B5816085BD80916E008160EA
:1036000080936E001092810080918100826080938F
:103610008100809181008160809381008091800091
:103620008160809380008091B10084608093B100BC
:103630008091B00081608093B00080917A008460B6
:1036400080937A0080917A00826080937A008091E2
:103650007A00816080937A0080917A0080688093FC
:103660007A001092C100E0919C04F0919D0482E0E8
:103670008083E0919804F09199041082E0919A047B
:10368000F0919B048FEC80831092A404E091A0043D
:10369000F091A10486E08083E0919E04F0919F0464
:1036A000808180618083E0919E04F0919F048081FD
:1036B00088608083E0919E04F0919F0480818068FF
:1036C0008083E0919E04F0919F0480818F7D8083B0
:1036D00083EF90E00E94B11261E084E00E94FB0160
:1036E0000E94171162E083E00E94FB0162E086E025
:1036F0000E94FB0162E082E00E94FB018FE892E001
:103700009093050180930401809169008360809308
:103710006900E89A1092190210921802109267023A
:10372000109289020E94FC0383EA92E09093FA01CE
:103730008093F90184EA92E09093F8018093F70175
:103740000E94FC0364E670E080E090E00E94510279
:1037500061E070E080E895E00E941B11892B69F41C
:103760001092FC018BEA90E00E94B11289ED90E08A
:103770000E94B11283E090E039C1809180058F777B
:103780008093800580918E0590918F0511E01093B4
:10379000660228E62093880210926702109289023E
:1037A000DC01ED91FC910190F081E02D60E0099544
:1037B00080918E0590918F05DC01ED91FC91019037
:1037C000F081E02D60918005099581E00E943B0425
:1037D0001093FC018CE990E00E94B11280915A058F
:1037E000882321F085E595E00E944C0D1092360566
:1037F0001092340510923105109230058AE08093C2
:103800002F050E9483027B0161E080912F050E94B9
:10381000FB0161E080912F050E94CD01DFB6F89495
:103820008091FB01811127C0ECE4F2E08491E0E695
:10383000F2E09491E82FF0E0EE0FFF1FEC5DFD4FFA
:10384000A591B491EC91E92321F461E08AE00E9412
:10385000CD0161E08AE00E94FB018CB580618CBDE6
:103860008CB580648CBD61E08DE00E94FB0161E05D
:103870008BE00E94FB018091FB018F5F8093FB0135
:10388000DFBE82E58093290510922A0580912905E3
:1038900090912A050E94EA051AE08FEF0E94C50563
:1038A0001150D9F78BE295E00E94ED0520E030E061
:1038B000A90160E08BE295E00E940306182F809337
:1038C0003505813089F00E9483026E197F09613DC0
:1038D000774060F381E0809330058BE295E00E94B1
:1038E000BA0586E890E040CF2AEA31E040E050E0B7
:1038F00068E08BE295E00E94030682FF2AC01093E5
:10390000360580913605812C912C5401823029F4A2
:10391000812C912CA12C30E4B32E20E030E0A901C1
:1039200067E38BE295E00E940306A501940169E23A
:103930008BE295E00E940306809335058823C1F051
:103940000E9483026E197F09613D774030F388E061
:10395000C2CF14E00E94CC05809335051150D1F7F9
:103960008A3A11F082E0B7CF82E080933605C9CF62
:10397000809136058230D1F420E030E0A9016AE37D
:103980008BE295E00E940306882311F086E0A3CF26
:103990000E94CC05807C803C19F483E0809336053E
:1039A0000E94CC050E94CC050E94CC058BE295E0DC
:1039B0000E94BA0580E58093290510922A0581E0CE
:1039C0000E940908882309F4DAC085E595E00E9481
:1039D000C00A882309F485CF88E790E00E94B112DD
:1039E00082EC90E00E94B11281E090E09093FE01A1
:1039F0008093FD0182E0282E312C93E0A92EB12C7A
:103A000088248394912C0E9483022B013C01809195
:103A10000B0290910C02A0910D02B0910E02A30135
:103A20009201281B390B4A0B5B0BDA01C901843F59
:103A30009140A105B10578F10E946A016C0183E112
:103A400092E00E949A030D2C000CEE08FF082AE079
:103A5000B701A601F7FE0DC06DE28CE894E00E946C
:103A6000A60244275527BA014C195D096E097F0942
:103A70002AE08CE894E00E94C11260E571E08CE8D5
:103A800094E00E94A21240920B0250920C026092AB
:103A90000D0270920E02409107025091080260914F
:103AA000090270910A028091030290910402A09190
:103AB0000502B0910602481759076A077B07A9F467
:103AC0008091FF0190910002A0910102B091020249
:103AD000A3019201281B390B4A0B5B0BDA01C901C8
:103AE000883E9340A105B10578F185E092E00E94FF
:103AF0009A03409107025091080260910902709167
:103B00000A022AE08CE894E00E94C11260E571E0AC
:103B10008CE894E00E94A212809107029091080222
:103B2000A0910902B0910A028093030290930402CB
:103B3000A0930502B09306024092FF01509200024A
:103B400060920102709202028091FD019091FE014B
:103B50008130910521F1D0F082309105F1F1039788
:103B600009F4D5C020E030E0232B09F44CCF0E94AB
:103B70001703882309F447CF0E94000044CF80E058
:103B80000E940908882309F4ACCE1FCF89EE91E08A
:103B90000E94B112B092FE01A092FD01E3CF0E94FB
:103BA00017110E9483026B017C010E9483026C1931
:103BB0007D098E099F09643671058105910508F01C
:103BC000B1C083E00E94A401892B79F362E370E025
:103BD00080E090E00E945102C5CFCE010D960E9478
:103BE000E717109207021092080210920902109231
:103BF0000A0282E591E00E94B11261E084E00E9435
:103C0000CD010E9483026B017C010E9483026C192A
:103C10007D098E099F09693873418105910508F472
:103C200058C00E94171182E391E00E94B112CE01A8
:103C300007960E94E7170E946A017C0161EA71E021
:103C4000CE0101960E94F3134090070250900802A3
:103C50006090090270900A02B701FF0C880B990B63
:103C60000E94001F20E030E040EA50E40E945F1F05
:103C700020E030E040E85AE30E945F1F20E030E09F
:103C800040E650E40E945F1FDE0111966D017B014A
:103C90008C01A3019201BE01695F7F4FCE010D9699
:103CA0000E945516C6010E949A12CE0107960E94E4
:103CB0009A1210E0CE010D960E949A12112321F162
:103CC0008DE891E00E94B1129092FE018092FD0178
:103CD00049CF0E9483022B013C010E948302641998
:103CE0007509860997096C3271408105910518F5AF
:103CF00086E00E94A401892B81F36AE070E080E0F5
:103D000090E00E94510281CF8EE691E041CF0E9467
:103D1000171185EC91E00E94B11264EF71E080E030
:103D200090E058CF88EA91E00E94B1123092FE01F3
:103D30002092FD014BCF0E94171183E191E00E9478
:103D40009A03409107025091080260910902709114
:103D50000A022AE08CE894E00E94C11260E571E05A
:103D60008CE894E00E94A212CE0107960E94E71709
:103D70000E946A017C0169EA71E0CE0101960E940D
:103D8000F31340900702509008026090090270906F
:103D90000A02B701FF0C880B990B0E94001F20E05C
:103DA00030E040EA50E40E945F1F20E030E040E84D
:103DB0005AE30E945F1F20E030E040E650E40E949A
:103DC0005F1FAE014F5F5F4F6A017B018C01A30152
:103DD0009201BE01695F7F4FCE010D960E9455167C
:103DE000C6010E949A12CE0107960E949A1211E013
:103DF00061CF0E943B1F08F481E00895E89409C058
:103E000097FB3EF490958095709561957F4F8F4F0D
:103E10009F4F9923A9F0F92F96E9BB279395F69523
:103E2000879577956795B795F111F8CFFAF4BB0FA1
:103E300011F460FF1BC06F5F7F4F8F4F9F4F16C005
:103E4000882311F096E911C0772321F09EE8872F8F
:103E5000762F05C0662371F096E8862F70E060E04B
:103E60002AF09A95660F771F881FDAF7880F9695C4
:103E7000879597F90895990F0008550FAA0BE0E868
:103E8000FEEF16161706E807F907C0F0121613061C
:103E9000E407F50798F0621B730B840B950B39F45C
:103EA0000A2661F0232B242B252B21F408950A26C2
:103EB00009F4A140A6958FEF811D811D08950E94F0
:103EC000721F0C94E31F0E94D51F38F00E94DC1F64
:103ED00020F0952311F00C94CC1F0C94D21F1124C8
:103EE0000C9417200E94F41F70F3959FC1F3950F57
:103EF00050E0551F629FF001729FBB27F00DB11D6E
:103F0000639FAA27F00DB11DAA1F649F6627B00DFD
:103F1000A11D661F829F2227B00DA11D621F739FE6
:103F2000B00DA11D621F839FA00D611D221F749FF4
:103F30003327A00D611D231F849F600D211D822F3B
:103F4000762F6A2F11249F5750409AF0F1F0882362
:103F50004AF0EE0FFF1FBB1F661F771F881F91508F
:103F60005040A9F79E3F510580F00C94CC1F0C9453
:103F700017205F3FE4F3983ED4F3869577956795D5
:103F8000B795F795E7959F5FC1F7FE2B880F911DB9
:103F90009695879597F9089597F99F6780E870E05F
:103FA00060E008959FEF80EC089500240A941616AF
:103FB000170618060906089500240A941216130617
:103FC000140605060895092E0394000C11F48823A5
:103FD00052F0BB0F40F4BF2B11F460FF04C06F5FC1
:103FE0007F4F8F4F9F4F089557FD9058440F551F97
:103FF00059F05F3F71F04795880F97FB991F61F06B
:104000009F3F79F087950895121613061406551FE1
:10401000F2CF4695F1DF08C0161617061806991F4D
:10402000F1CF86957105610508940895E894BB2742
:1040300066277727CB0197F908950E945F20A59FF7
:10404000900DB49F900DA49F800D911D1124089593
:104050002F923F924F925F926F927F928F929F9298
:10406000AF92BF92CF92DF92EF92FF920F931F9386
:10407000CF93DF93CDB7DEB7CA1BDB0B0FB6F89437
:10408000DEBF0FBECDBF09942A88398848885F8477
:104090006E847D848C849B84AA84B984C884DF80E8
:1040A000EE80FD800C811B81AA81B981CE0FD11DCC
:1040B0000FB6F894DEBF0FBECDBFED010895A29FED
:1040C000B001B39FC001A39F700D811D1124911DEC
:1040D000B29F700D811D1124911D08955058BB276A
:1040E000AA270E9486200C94E31F0E94D51F38F057
:1040F0000E94DC1F20F039F49F3F19F426F40C9441
:10410000D21F0EF4E095E7FB0C94CC1FE92F0E9420
:10411000F41F58F3BA17620773078407950720F056
:1041200079F4A6F50C9416200EF4E0950B2EBA2F18
:10413000A02D0B01B90190010C01CA01A0011124AD
:10414000FF27591B99F0593F50F4503E68F11A1659
:10415000F040A22F232F342F4427585FF3CF4695EA
:1041600037952795A795F0405395C9F77EF41F160C
:10417000BA0B620B730B840BBAF09150A1F0FF0FD6
:10418000BB1F661F771F881FC2F70EC0BA0F621FC2
:10419000731F841F48F4879577956795B795F795B2
:1041A0009E3F08F0B0CF9395880F08F09927EE0F47
:1041B0009795879508950E94EF200C94E31F0E9425
:1041C000DC1F58F00E94D51F40F029F45F3F29F012
:1041D0000C94CC1F51110C9417200C94D21F0E94E8
:1041E000F41F68F39923B1F3552391F3951B550BF5
:1041F000BB27AA2762177307840738F09F5F5F4FBA
:10420000220F331F441FAA1FA9F335D00E2E3AF0F8
:10421000E0E832D091505040E695001CCAF72BD010
:10422000FE2F29D0660F771F881FBB1F2617370761
:104230004807AB07B0E809F0BB0B802DBF01FF2793
:1042400093585F4F3AF09E3F510578F00C94CC1F85
:104250000C9417205F3FE4F3983ED4F3869577954E
:104260006795B795F7959F5FC9F7880F911D96954C
:10427000879597F90895E1E0660F771F881FBB1FA8
:10428000621773078407BA0720F0621B730B840B55
:10429000BA0BEE1F88F7E09508950E94FC1F88F086
:1042A0009F5798F0B92F9927B751B0F0E1F0660FFA
:1042B000771F881F991F1AF0BA95C9F714C0B1303B
:1042C00091F00E941620B1E008950C941620672FFB
:1042D000782F8827B85F39F0B93FCCF3869577956A
:1042E0006795B395D9F73EF4909580957095619553
:1042F0007F4F8F4F9F4F08950E943B1F08F48FEF11
:1043000008950E943B1F880B990B0895A1E21A2E75
:10431000AA1BBB1BFD010DC0AA1FBB1FEE1FFF1F69
:10432000A217B307E407F50720F0A21BB30BE40BB9
:10433000F50B661F771F881F991F1A9469F7609500
:104340007095809590959B01AC01BD01CF010895BA
:10435000EE0FFF1F0590F491E02D09940F931F932A
:10436000CF93DF938230910510F482E090E0E091EA
:104370009405F091950530E020E0B0E0A0E03097A2
:1043800099F42115310509F44AC0281B390B243052
:104390003105D8F58A819B816115710589F1FB0191
:1043A00093838283FE0111C0408151810281138178
:1043B00048175907E0F04817590799F4109761F02A
:1043C00012960C93129713961C933296CF01DF919D
:1043D000CF911F910F910895009394051093950527
:1043E000F4CF2115310551F04217530738F0A901D8
:1043F000DB019A01BD01DF01F801C1CFEF01F9CF67
:104400009093950580939405CDCFFE01E20FF31FA5
:10441000819391932250310939832883D7CF2091FA
:10442000920530919305232B41F420910A0130919C
:104430000B01309393052093920520910801309150
:1044400009012115310541F42DB73EB740910C010A
:1044500050910D01241B350BE0919205F0919305CD
:10446000E217F307A0F42E1B3F0B2817390778F04B
:10447000AC014E5F5F4F2417350748F04E0F5F1FAA
:104480005093930540939205819391939FCFF0E0D1
:10449000E0E09CCFCF93DF930097E9F0FC013297E7
:1044A00013821282A0919405B0919505ED0130E040
:1044B00020E01097A1F420813181820F931F209179
:1044C0009205309193052817390709F061C0F093E0
:1044D0009305E0939205DF91CF910895EA01CE17FD
:1044E000DF07E8F54A815B819E0141155105B1F76F
:1044F000E901FB83EA8349915991C40FD51FEC1759
:10450000FD0761F4808191810296840F951FE90176
:1045100099838883828193819B838A83F0E0E0E0A2
:1045200012968D919C9113970097B9F52D913C911E
:104530001197CD010296820F931F20919205309121
:1045400093052817390739F6309751F510929505DC
:1045500010929405B0939305A0939205BCCFD3839A
:10456000C28340815181840F951FC817D90761F418
:104570004E5F5F4F88819981480F591F5183408357
:104580008A819B81938382832115310509F0B0CF05
:10459000F0939505E09394059ECFFD01DC01C0CF1B
:1045A00013821282D7CFB0E0A0E0E9EDF2E20C94E2
:1045B0002A208C01009751F4CB010E94AE218C017E
:1045C000C801CDB7DEB7E0E10C944620FC01E60F50
:1045D000F71F9C0122503109E217F30708F49DC030
:1045E000D901CD91DC911197C617D70798F0C53046
:1045F000D10530F3CE0104978617970708F3C61B41
:10460000D70B2297C193D1936D937C93CF010E94D6
:104610004A22D6CF5B01AC1ABD0A4C018C0E9D1EFE
:10462000A0919405B0919505512C412CF12CE12CD1
:10463000109731F580919205909193058815990511
:1046400009F05CC04616570608F058C08091080172
:1046500090910901009741F48DB79EB740910C01EC
:1046600050910D01841B950BE817F90708F055C010
:10467000F0939305E0939205F90171836083A0CFD5
:104680008D919C91119712966C90129713967C9035
:104690001397A815B90559F56C0142E0C40ED11C59
:1046A000CA14DB0420F1AC014A195B09DA01129645
:1046B000159780F06282738251834083D9016D9394
:1046C0007C93E114F10471F0D7011396FC93EE93FF
:1046D000129776CF22968C0F9D1FF90191838083CC
:1046E000F301EFCFF0939505E093940569CF481659
:1046F000590608F42C017D01D3019ACFCB010E9409
:10470000AE217C01009749F0AE01B8010E949D23C3
:10471000C8010E944A22870153CF10E000E050CF29
:10472000FB01DC0104C08D910190801921F44150FE
:104730005040C8F7881B990B0895FB01DC0102C0AB
:1047400001900D9241505040D8F70895FC0181919D
:10475000861721F08823D9F7992708953197CF013B
:104760000895FB01DC0101900D920020E1F708950E
:10477000FB01DC014150504048F001900D920020B7
:10478000C9F701C01D9241505040E0F70895AEE0D6
:10479000B0E0EDECF3E20C9436200D891E898F8990
:1047A000988D26E02C831A83098397FF02C080E04E
:1047B00090E801979E838D83AE01455E5F4F698DC2
:1047C0007A8DCE0101960E94F7234D815E8157FDBF
:1047D0000AC02F813885421753070CF49A01020F43
:1047E000131FF80110822E96E4E00C945220ABE0E7
:1047F000B0E0EDEFF3E20C9428207C013B018A014C
:10480000FC0117821682838181FFC8C1CE01019607
:104810005C01F7019381F30193FD859193FF8191F1
:104820003F01882309F453C1853239F493FD859102
:1048300093FF81913F01853229F4B70190E00E94F6
:10484000E725E7CF912C212C312CFFE1F31538F02F
:104850008B3211F190F4803209F1833229F137FC67
:104860003CC020ED280F2A3050F536FE20C08AE0EB
:10487000989E200D1124922E06C08D3291F0803327
:1048800071F7689430F8F30193FD859193FF81915E
:104890003F018111DACF21C0689431F8689432F871
:1048A000F2CF689433F8EFCF689434F8ECCFEAE0B5
:1048B0002E9E200D1124222E689435F8E4CF8E32DE
:1048C00029F436FC04C1689436F8DDCF8C3619F42F
:1048D000689437F8D8CF8836B1F2982F9F7D9554D9
:1048E0009330E0F08336A1F18337C1F1833509F0CD
:1048F00063C02801F2E04F0E511CF801C080D18046
:10490000692D70E036FC02C06FEF7FEFC6010E9498
:10491000D1254C01689437F882010AC00C5F1F4F03
:10492000FFE3F98388248394912C6501E89437F898
:1049300033FE2DC0522C8114910471F5552009F4D9
:1049400068CFB70180E290E00E94E7255A94F6CF45
:10495000F801808189830E5F1F4FE4CF2801F2E0C8
:104960004F0E511CF801C080D180692D70E036FCDB
:1049700002C06FEF7FEFC6010E94DC254C0182016F
:10498000D5CFB70180E290E00E94E7252A94281451
:10499000190409F0B0F7CECFF60137FC859137FE48
:1049A00081916F01B70190E00E94E72551105A9460
:1049B000F1E08F1A9108BFCF843619F0893609F0DB
:1049C00077C0F80137FE6BC060817181828193816D
:1049D0000C5F1F4FF32DFF763F2E97FF09C0909578
:1049E0008095709561957F4F8F4F9F4F689437F8F2
:1049F0002AE030E0A5010E941726C82ECA188C2C88
:104A0000432C36FE0CC0E89440F8C91440F434FE40
:104A100005C032FC03C0F32DFE7E4F2E892C44FED0
:104A200095C0FE01EC0DF11D8081803309F087C037
:104A3000242D297E422E842D8870582E43FC95C04B
:104A400040FE8FC09C2C821418F42C0C922C9818C9
:104A500044FE91C0B70180E390E00E94E72542FE4A
:104A600009C088E790E041FE02C088E590E0B70108
:104A70000E94E725C91408F48AC0CA94D12C9FEF7C
:104A8000C91AD90ACA0CDB1CF60182916F01B70161
:104A900090E00E94E725AC14BD04B1F74FCF6081D0
:104AA0007181072E000C880B990B0E5F1F4F92CF60
:104AB000D32CE894D4F82AE030E0853739F1232D5F
:104AC000297FD22E8F3601F148F48835A9F0F701FD
:104AD000868197812B96E2E10C944420803749F03F
:104AE0008837A9F7D4FE02C06894D2F820E130E0FC
:104AF0000DC06894D4F8F6CF34FE03C0822F8660D0
:104B0000D82E20E132E002C028E030E0F801D7FEE4
:104B10000FC060817181828193810C5F1F4FA5015D
:104B20000E941726C82ECA183D2CE89437F867CF84
:104B30006081718190E080E00E5F1F4FF0CF42FCFA
:104B400002C0839478CF8394839475CF842D867824
:104B500009F471CFF6CFB70180E290E00E94E7251B
:104B600083948214C0F3512C73CF522C58188214A2
:104B700008F46ECFF8CF842D867809F47BCF8BE2D2
:104B800041FE80E247FC8DE2B70190E071CFB701B2
:104B900080E390E00E94E7259A946CCF8FEF9FEF1F
:104BA00099CFFC010590615070400110D8F78095B5
:104BB00090958E0F9F1F0895FC01615070400190E9
:104BC0000110D8F7809590958E0F9F1F08950F9331
:104BD0001F93CF93DF93182F092FEB018B8181FD5A
:104BE00009C01FEF0FEF812F902FDF91CF911F9101
:104BF0000F91089582FF14C02E813F818C819D8189
:104C0000281739073CF4E881F981CF01019699838F
:104C1000888310838E819F8101969F838E83E3CF4B
:104C2000E885F985812F0995892BA1F3DACFFA015F
:104C3000AA27283051F1203181F1E8946F936E7FDB
:104C40006E5F7F4F8F4F9F4FAF4FB1E03ED0B4E0CC
:104C50003CD0670F781F891F9A1FA11D680F791F0D
:104C60008A1F911DA11D6A0F711D811D911DA11D1E
:104C700020D009F468943F912AE0269F112430192E
:104C8000305D3193DEF6CF010895462F4770405DC9
:104C90004193B3E00FD0C9F7F6CF462F4F70405D78
:104CA0004A3318F0495D31FD4052419302D0A9F7D3
:104CB000EACFB4E0A6959795879577956795BA95CD
:104CC000C9F700976105710508959B01AC010A2E93
:104CD00006945795479537952795BA95C9F7620F6A
:0E4CE000731F841F951FA01D0895F894FFCF29
:104CEE00FFFFFFFFA502A502000096058000000051
:104CFE000000B30F8F0F7F0F560F5F0FE910F310E9
:104D0E00000000004D03AD02DA02B5030B03E90209
:104D1E00FD020000000082055505B1052B054E056C
:104D2E003B052C0500000000F40EAD02EE0C550FF5
:104D3E000D0A006E616E00696E66006F7666002F5A
:104D4E0066696C6C5F6C6F672E637376002F003133
:104D5E003937302D30312D30312030303A30303A35
:104D6E00303000253034752D253032752D253032FA
:104D7E007520253032753A253032753A2530327528
:0C4D8E000054494D454F5554004F4B0058
:00000001FF
